{"contracts/NFTClaimContract.sol":{"NFTClaimContract":{"abi":[{"inputs":[{"internalType":"address","name":"_nftContract","type":"address"}],"stateMutability":"nonpayable","type":"constructor"},{"inputs":[{"internalType":"address","name":"owner","type":"address"}],"name":"OwnableInvalidOwner","type":"error"},{"inputs":[{"internalType":"address","name":"account","type":"address"}],"name":"OwnableUnauthorizedAccount","type":"error"},{"inputs":[],"name":"ReentrancyGuardReentrantCall","type":"error"},{"anonymous":false,"inputs":[{"indexed":true,"internalType":"bytes32","name":"claimCodeHash","type":"bytes32"},{"indexed":true,"internalType":"uint256","name":"tokenId","type":"uint256"},{"indexed":true,"internalType":"address","name":"retailer","type":"address"}],"name":"ClaimCancelled","type":"event"},{"anonymous":false,"inputs":[{"indexed":true,"internalType":"bytes32","name":"claimCodeHash","type":"bytes32"},{"indexed":true,"internalType":"uint256","name":"tokenId","type":"uint256"},{"indexed":true,"internalType":"address","name":"retailer","type":"address"}],"name":"ClaimCreated","type":"event"},{"anonymous":false,"inputs":[{"indexed":true,"internalType":"bytes32","name":"claimCodeHash","type":"bytes32"},{"indexed":true,"internalType":"uint256","name":"tokenId","type":"uint256"},{"indexed":true,"internalType":"address","name":"customer","type":"address"},{"indexed":false,"internalType":"address","name":"retailer","type":"address"}],"name":"ClaimExecuted","type":"event"},{"anonymous":false,"inputs":[{"indexed":true,"internalType":"address","name":"previousOwner","type":"address"},{"indexed":true,"internalType":"address","name":"newOwner","type":"address"}],"name":"OwnershipTransferred","type":"event"},{"inputs":[{"internalType":"string","name":"claimCode","type":"string"}],"name":"cancelClaim","outputs":[],"stateMutability":"nonpayable","type":"function"},{"inputs":[{"internalType":"string","name":"claimCode","type":"string"}],"name":"checkClaim","outputs":[{"internalType":"bool","name":"isValid","type":"bool"},{"internalType":"uint256","name":"tokenId","type":"uint256"},{"internalType":"address","name":"retailer","type":"address"},{"internalType":"bool","name":"isClaimed","type":"bool"}],"stateMutability":"view","type":"function"},{"inputs":[{"internalType":"bytes32","name":"","type":"bytes32"}],"name":"claims","outputs":[{"internalType":"uint256","name":"tokenId","type":"uint256"},{"internalType":"address","name":"retailer","type":"address"},{"internalType":"bool","name":"isClaimed","type":"bool"},{"internalType":"address","name":"claimedBy","type":"address"},{"internalType":"uint256","name":"claimedAt","type":"uint256"}],"stateMutability":"view","type":"function"},{"inputs":[{"internalType":"string","name":"claimCode","type":"string"},{"internalType":"uint256","name":"tokenId","type":"uint256"}],"name":"createClaim","outputs":[],"stateMutability":"nonpayable","type":"function"},{"inputs":[{"internalType":"string","name":"claimCode","type":"string"},{"internalType":"address","name":"customerAddress","type":"address"}],"name":"executeClaim","outputs":[],"stateMutability":"nonpayable","type":"function"},{"inputs":[{"internalType":"string","name":"claimCode","type":"string"}],"name":"getClaimInfo","outputs":[{"components":[{"internalType":"uint256","name":"tokenId","type":"uint256"},{"internalType":"address","name":"retailer","type":"address"},{"internalType":"bool","name":"isClaimed","type":"bool"},{"internalType":"address","name":"claimedBy","type":"address"},{"internalType":"uint256","name":"claimedAt","type":"uint256"}],"internalType":"struct NFTClaimContract.Claim","name":"","type":"tuple"}],"stateMutability":"view","type":"function"},{"inputs":[],"name":"nftContract","outputs":[{"internalType":"contract IERC721","name":"","type":"address"}],"stateMutability":"view","type":"function"},{"inputs":[],"name":"owner","outputs":[{"internalType":"address","name":"","type":"address"}],"stateMutability":"view","type":"function"},{"inputs":[],"name":"renounceOwnership","outputs":[],"stateMutability":"nonpayable","type":"function"},{"inputs":[{"internalType":"uint256","name":"","type":"uint256"}],"name":"tokenIdToClaim","outputs":[{"internalType":"bytes32","name":"","type":"bytes32"}],"stateMutability":"view","type":"function"},{"inputs":[{"internalType":"address","name":"newOwner","type":"address"}],"name":"transferOwnership","outputs":[],"stateMutability":"nonpayable","type":"function"}],"evm":{"bytecode":{"linkReferences":{},"object":"608060405234801561001057600080fd5b506040516112a23803806112a283398101604081905261002f9161012f565b338061005657604051631e4fbdf760e01b8152600060048201526024015b60405180910390fd5b61005f816100df565b50600180556001600160a01b0381166100ba5760405162461bcd60e51b815260206004820152601c60248201527f496e76616c6964204e465420636f6e7472616374206164647265737300000000604482015260640161004d565b600280546001600160a01b0319166001600160a01b039290921691909117905561015f565b600080546001600160a01b038381166001600160a01b0319831681178455604051919092169283917f8be0079c531659141344cd1fd0a4f28419497f9722a3daafe3b4186f6b6457e09190a35050565b60006020828403121561014157600080fd5b81516001600160a01b038116811461015857600080fd5b9392505050565b6111348061016e6000396000f3fe608060405234801561001057600080fd5b50600436106100a95760003560e01c8063715018a611610071578063715018a6146101b25780638da5cb5b146101ba578063d56d229d146101df578063d7d5c065146101f2578063eff0f59214610205578063f2fde38b1461028b57600080fd5b806314c3ccc8146100ae5780631ea7fe66146100e15780632c94d194146100f65780634e4c1eb514610109578063529f8adf1461016c575b600080fd5b6100ce6100bc366004610ec7565b60046020526000908152604090205481565b6040519081526020015b60405180910390f35b6100f46100ef366004610f98565b61029e565b005b6100f4610104366004610fea565b61070e565b61011c610117366004610fea565b610886565b6040516100d89190815181526020808301516001600160a01b0390811691830191909152604080840151151590830152606080840151909116908201526080918201519181019190915260a00190565b61017f61017a366004610fea565b610939565b6040516100d89493929190931515845260208401929092526001600160a01b031660408301521515606082015260800190565b6100f46109a3565b6000546001600160a01b03165b6040516001600160a01b0390911681526020016100d8565b6002546101c7906001600160a01b031681565b6100f4610200366004611027565b6109b7565b610255610213366004610ec7565b6003602081905260009182526040909120805460018201546002830154929093015490926001600160a01b0380821693600160a01b90920460ff169291169085565b604080519586526001600160a01b039485166020870152921515928501929092529091166060830152608082015260a0016100d8565b6100f461029936600461106c565b610de5565b6102a6610e20565b6001600160a01b0381166103015760405162461bcd60e51b815260206004820152601860248201527f496e76616c696420637573746f6d65722061646472657373000000000000000060448201526064015b60405180910390fd5b6000826040516020016103149190611090565b60408051601f1981840301815291815281516020928301206000818152600390935291206001810154919250906001600160a01b031661038b5760405162461bcd60e51b8152602060048201526012602482015271496e76616c696420636c61696d20636f646560701b60448201526064016102f8565b6001810154600160a01b900460ff16156103dc5760405162461bcd60e51b815260206004820152601260248201527110db185a5b48185b1c9958591e481d5cd95960721b60448201526064016102f8565b600181015460025482546040516331a9108f60e11b815260048101919091526001600160a01b039283169290911690636352211e90602401602060405180830381865afa158015610431573d6000803e3d6000fd5b505050506040513d601f19601f8201168201806040525081019061045591906110bf565b6001600160a01b0316146104ab5760405162461bcd60e51b815260206004820152601b60248201527f52657461696c6572206e6f206c6f6e676572206f776e73204e4654000000000060448201526064016102f8565b600254815460405163020604bf60e21b815260048101919091526000916001600160a01b03169063081812fc90602401602060405180830381865afa1580156104f8573d6000803e3d6000fd5b505050506040513d601f19601f8201168201806040525081019061051c91906110bf565b90506001600160a01b0381163014806105a85750600254600183015460405163e985e9c560e01b81526001600160a01b03918216600482015230602482015291169063e985e9c590604401602060405180830381865afa158015610584573d6000803e3d6000fd5b505050506040513d601f19601f820116820180604052508101906105a891906110dc565b6105f45760405162461bcd60e51b815260206004820152601b60248201527f436f6e7472616374206e6f206c6f6e67657220617070726f766564000000000060448201526064016102f8565b60018201805460ff60a01b1916600160a01b178155600280840180546001600160a01b038881166001600160a01b03199092168217909255426003870155855460009081526004602081905260408083209290925593549454875491516323b872dd60e01b8152908416948101949094526024840191909152604483015291909116906323b872dd90606401600060405180830381600087803b15801561069a57600080fd5b505af11580156106ae573d6000803e3d6000fd5b5050835460018501546040516001600160a01b039182168152908816935090915085907f2445d773c66ed16c943ba99dbaf1e078ab6df9dcc6ea87a9aa67dbbaf4b33a789060200160405180910390a450505061070a60018055565b5050565b610716610e20565b6000816040516020016107299190611090565b60408051601f1981840301815291815281516020928301206000818152600390935291206001810154919250906001600160a01b031633146107ad5760405162461bcd60e51b815260206004820152601860248201527f4f6e6c792072657461696c65722063616e2063616e63656c000000000000000060448201526064016102f8565b6001810154600160a01b900460ff16156107fe5760405162461bcd60e51b815260206004820152601260248201527110db185a5b48185b1c9958591e481d5cd95960721b60448201526064016102f8565b805460008181526004602090815260408083208390558583526003918290528083208381556001810180546001600160a81b03191690556002810180546001600160a01b0319169055909101829055513391839186917f60b95ca8429fa51ad63157b7e4a33c4441432d3e1e2d056b352533ed87fa284691a450505061088360018055565b50565b6040805160a0810182526000808252602082018190529181018290526060810182905260808101919091526000826040516020016108c49190611090565b60408051808303601f190181528282528051602091820120600090815260038083529083902060a0850184528054855260018101546001600160a01b0380821694870194909452600160a01b900460ff1615159385019390935260028301549091166060840152015460808201529392505050565b6000806000806000856040516020016109529190611090565b60408051808303601f190181529181528151602092830120600090815260039092529020600181015490546001600160a01b038216801515999198509650600160a01b90910460ff16945092505050565b6109ab610e4a565b6109b56000610e77565b565b6109bf610e20565b6000825111610a105760405162461bcd60e51b815260206004820152601a60248201527f436c61696d20636f64652063616e6e6f7420626520656d70747900000000000060448201526064016102f8565b6002546040516331a9108f60e11b81526004810183905233916001600160a01b031690636352211e90602401602060405180830381865afa158015610a59573d6000803e3d6000fd5b505050506040513d601f19601f82011682018060405250810190610a7d91906110bf565b6001600160a01b031614610acc5760405162461bcd60e51b8152602060048201526016602482015275165bdd48191bdb89dd081bdddb881d1a1a5cc813919560521b60448201526064016102f8565b60025460405163020604bf60e21b8152600481018390526000916001600160a01b03169063081812fc90602401602060405180830381865afa158015610b16573d6000803e3d6000fd5b505050506040513d601f19601f82011682018060405250810190610b3a91906110bf565b90506001600160a01b038116301480610bc0575060025460405163e985e9c560e01b81523360048201523060248201526001600160a01b039091169063e985e9c590604401602060405180830381865afa158015610b9c573d6000803e3d6000fd5b505050506040513d601f19601f82011682018060405250810190610bc091906110dc565b610c175760405162461bcd60e51b815260206004820152602260248201527f436f6e7472616374206e6f7420617070726f76656420666f722074686973204e604482015261119560f21b60648201526084016102f8565b600083604051602001610c2a9190611090565b60408051601f198184030181529181528151602092830120600081815260039093529120600101549091506001600160a01b031615610cab5760405162461bcd60e51b815260206004820152601960248201527f436c61696d20636f646520616c7265616479206578697374730000000000000060448201526064016102f8565b60008381526004602052604090205415610d115760405162461bcd60e51b815260206004820152602160248201527f546f6b656e20616c72656164792068617320616e2061637469766520636c61696044820152606d60f81b60648201526084016102f8565b6040805160a08101825284815233602080830182815260008486018181526060860182815260808701838152898452600380875289852098518955945160018901805494511515600160a01b026001600160a81b03199095166001600160a01b0392831617949094179093559051600288018054919093166001600160a01b03199190911617909155519490910193909355868352600490528282208490559151859184917f197763950dc3d29dd58ddd2193f9fe16477587b73cbd1fa99458c760f162f9dd9190a4505061070a60018055565b610ded610e4a565b6001600160a01b038116610e1757604051631e4fbdf760e01b8152600060048201526024016102f8565b61088381610e77565b600260015403610e4357604051633ee5aeb560e01b815260040160405180910390fd5b6002600155565b6000546001600160a01b031633146109b55760405163118cdaa760e01b81523360048201526024016102f8565b600080546001600160a01b038381166001600160a01b0319831681178455604051919092169283917f8be0079c531659141344cd1fd0a4f28419497f9722a3daafe3b4186f6b6457e09190a35050565b600060208284031215610ed957600080fd5b5035919050565b634e487b7160e01b600052604160045260246000fd5b600082601f830112610f0757600080fd5b813567ffffffffffffffff80821115610f2257610f22610ee0565b604051601f8301601f19908116603f01168101908282118183101715610f4a57610f4a610ee0565b81604052838152866020858801011115610f6357600080fd5b836020870160208301376000602085830101528094505050505092915050565b6001600160a01b038116811461088357600080fd5b60008060408385031215610fab57600080fd5b823567ffffffffffffffff811115610fc257600080fd5b610fce85828601610ef6565b9250506020830135610fdf81610f83565b809150509250929050565b600060208284031215610ffc57600080fd5b813567ffffffffffffffff81111561101357600080fd5b61101f84828501610ef6565b949350505050565b6000806040838503121561103a57600080fd5b823567ffffffffffffffff81111561105157600080fd5b61105d85828601610ef6565b95602094909401359450505050565b60006020828403121561107e57600080fd5b813561108981610f83565b9392505050565b6000825160005b818110156110b15760208186018101518583015201611097565b506000920191825250919050565b6000602082840312156110d157600080fd5b815161108981610f83565b6000602082840312156110ee57600080fd5b8151801515811461108957600080fdfea2646970667358221220c77ef166d04478d320acc23747d9414e7fa383de925b48ca4e4a8b4316de728564736f6c63430008180033","opcodes":"PUSH1 0x80 PUSH1 0x40 MSTORE CALLVALUE DUP1 ISZERO PUSH2 0x10 JUMPI PUSH1 0x0 DUP1 REVERT JUMPDEST POP PUSH1 0x40 MLOAD PUSH2 0x12A2 CODESIZE SUB DUP1 PUSH2 0x12A2 DUP4 CODECOPY DUP2 ADD PUSH1 0x40 DUP2 SWAP1 MSTORE PUSH2 0x2F SWAP2 PUSH2 0x12F JUMP JUMPDEST CALLER DUP1 PUSH2 0x56 JUMPI PUSH1 0x40 MLOAD PUSH4 0x1E4FBDF7 PUSH1 0xE0 SHL DUP2 MSTORE PUSH1 0x0 PUSH1 0x4 DUP3 ADD MSTORE PUSH1 0x24 ADD JUMPDEST PUSH1 0x40 MLOAD DUP1 SWAP2 SUB SWAP1 REVERT JUMPDEST PUSH2 0x5F DUP2 PUSH2 0xDF JUMP JUMPDEST POP PUSH1 0x1 DUP1 SSTORE PUSH1 0x1 PUSH1 0x1 PUSH1 0xA0 SHL SUB DUP2 AND PUSH2 0xBA JUMPI PUSH1 0x40 MLOAD PUSH3 0x461BCD PUSH1 0xE5 SHL DUP2 MSTORE PUSH1 0x20 PUSH1 0x4 DUP3 ADD MSTORE PUSH1 0x1C PUSH1 0x24 DUP3 ADD MSTORE PUSH32 0x496E76616C6964204E465420636F6E7472616374206164647265737300000000 PUSH1 0x44 DUP3 ADD MSTORE PUSH1 0x64 ADD PUSH2 0x4D JUMP JUMPDEST PUSH1 0x2 DUP1 SLOAD PUSH1 0x1 PUSH1 0x1 PUSH1 0xA0 SHL SUB NOT AND PUSH1 0x1 PUSH1 0x1 PUSH1 0xA0 SHL SUB SWAP3 SWAP1 SWAP3 AND SWAP2 SWAP1 SWAP2 OR SWAP1 SSTORE PUSH2 0x15F JUMP JUMPDEST PUSH1 0x0 DUP1 SLOAD PUSH1 0x1 PUSH1 0x1 PUSH1 0xA0 SHL SUB DUP4 DUP2 AND PUSH1 0x1 PUSH1 0x1 PUSH1 0xA0 SHL SUB NOT DUP4 AND DUP2 OR DUP5 SSTORE PUSH1 0x40 MLOAD SWAP2 SWAP1 SWAP3 AND SWAP3 DUP4 SWAP2 PUSH32 0x8BE0079C531659141344CD1FD0A4F28419497F9722A3DAAFE3B4186F6B6457E0 SWAP2 SWAP1 LOG3 POP POP JUMP JUMPDEST PUSH1 0x0 PUSH1 0x20 DUP3 DUP5 SUB SLT ISZERO PUSH2 0x141 JUMPI PUSH1 0x0 DUP1 REVERT JUMPDEST DUP2 MLOAD PUSH1 0x1 PUSH1 0x1 PUSH1 0xA0 SHL SUB DUP2 AND DUP2 EQ PUSH2 0x158 JUMPI PUSH1 0x0 DUP1 REVERT JUMPDEST SWAP4 SWAP3 POP POP POP JUMP JUMPDEST PUSH2 0x1134 DUP1 PUSH2 0x16E PUSH1 0x0 CODECOPY PUSH1 0x0 RETURN INVALID PUSH1 0x80 PUSH1 0x40 MSTORE CALLVALUE DUP1 ISZERO PUSH2 0x10 JUMPI PUSH1 0x0 DUP1 REVERT JUMPDEST POP PUSH1 0x4 CALLDATASIZE LT PUSH2 0xA9 JUMPI PUSH1 0x0 CALLDATALOAD PUSH1 0xE0 SHR DUP1 PUSH4 0x715018A6 GT PUSH2 0x71 JUMPI DUP1 PUSH4 0x715018A6 EQ PUSH2 0x1B2 JUMPI DUP1 PUSH4 0x8DA5CB5B EQ PUSH2 0x1BA JUMPI DUP1 PUSH4 0xD56D229D EQ PUSH2 0x1DF JUMPI DUP1 PUSH4 0xD7D5C065 EQ PUSH2 0x1F2 JUMPI DUP1 PUSH4 0xEFF0F592 EQ PUSH2 0x205 JUMPI DUP1 PUSH4 0xF2FDE38B EQ PUSH2 0x28B JUMPI PUSH1 0x0 DUP1 REVERT JUMPDEST DUP1 PUSH4 0x14C3CCC8 EQ PUSH2 0xAE JUMPI DUP1 PUSH4 0x1EA7FE66 EQ PUSH2 0xE1 JUMPI DUP1 PUSH4 0x2C94D194 EQ PUSH2 0xF6 JUMPI DUP1 PUSH4 0x4E4C1EB5 EQ PUSH2 0x109 JUMPI DUP1 PUSH4 0x529F8ADF EQ PUSH2 0x16C JUMPI JUMPDEST PUSH1 0x0 DUP1 REVERT JUMPDEST PUSH2 0xCE PUSH2 0xBC CALLDATASIZE PUSH1 0x4 PUSH2 0xEC7 JUMP JUMPDEST PUSH1 0x4 PUSH1 0x20 MSTORE PUSH1 0x0 SWAP1 DUP2 MSTORE PUSH1 0x40 SWAP1 KECCAK256 SLOAD DUP2 JUMP JUMPDEST PUSH1 0x40 MLOAD SWAP1 DUP2 MSTORE PUSH1 0x20 ADD JUMPDEST PUSH1 0x40 MLOAD DUP1 SWAP2 SUB SWAP1 RETURN JUMPDEST PUSH2 0xF4 PUSH2 0xEF CALLDATASIZE PUSH1 0x4 PUSH2 0xF98 JUMP JUMPDEST PUSH2 0x29E JUMP JUMPDEST STOP JUMPDEST PUSH2 0xF4 PUSH2 0x104 CALLDATASIZE PUSH1 0x4 PUSH2 0xFEA JUMP JUMPDEST PUSH2 0x70E JUMP JUMPDEST PUSH2 0x11C PUSH2 0x117 CALLDATASIZE PUSH1 0x4 PUSH2 0xFEA JUMP JUMPDEST PUSH2 0x886 JUMP JUMPDEST PUSH1 0x40 MLOAD PUSH2 0xD8 SWAP2 SWAP1 DUP2 MLOAD DUP2 MSTORE PUSH1 0x20 DUP1 DUP4 ADD MLOAD PUSH1 0x1 PUSH1 0x1 PUSH1 0xA0 SHL SUB SWAP1 DUP2 AND SWAP2 DUP4 ADD SWAP2 SWAP1 SWAP2 MSTORE PUSH1 0x40 DUP1 DUP5 ADD MLOAD ISZERO ISZERO SWAP1 DUP4 ADD MSTORE PUSH1 0x60 DUP1 DUP5 ADD MLOAD SWAP1 SWAP2 AND SWAP1 DUP3 ADD MSTORE PUSH1 0x80 SWAP2 DUP3 ADD MLOAD SWAP2 DUP2 ADD SWAP2 SWAP1 SWAP2 MSTORE PUSH1 0xA0 ADD SWAP1 JUMP JUMPDEST PUSH2 0x17F PUSH2 0x17A CALLDATASIZE PUSH1 0x4 PUSH2 0xFEA JUMP JUMPDEST PUSH2 0x939 JUMP JUMPDEST PUSH1 0x40 MLOAD PUSH2 0xD8 SWAP5 SWAP4 SWAP3 SWAP2 SWAP1 SWAP4 ISZERO ISZERO DUP5 MSTORE PUSH1 0x20 DUP5 ADD SWAP3 SWAP1 SWAP3 MSTORE PUSH1 0x1 PUSH1 0x1 PUSH1 0xA0 SHL SUB AND PUSH1 0x40 DUP4 ADD MSTORE ISZERO ISZERO PUSH1 0x60 DUP3 ADD MSTORE PUSH1 0x80 ADD SWAP1 JUMP JUMPDEST PUSH2 0xF4 PUSH2 0x9A3 JUMP JUMPDEST PUSH1 0x0 SLOAD PUSH1 0x1 PUSH1 0x1 PUSH1 0xA0 SHL SUB AND JUMPDEST PUSH1 0x40 MLOAD PUSH1 0x1 PUSH1 0x1 PUSH1 0xA0 SHL SUB SWAP1 SWAP2 AND DUP2 MSTORE PUSH1 0x20 ADD PUSH2 0xD8 JUMP JUMPDEST PUSH1 0x2 SLOAD PUSH2 0x1C7 SWAP1 PUSH1 0x1 PUSH1 0x1 PUSH1 0xA0 SHL SUB AND DUP2 JUMP JUMPDEST PUSH2 0xF4 PUSH2 0x200 CALLDATASIZE PUSH1 0x4 PUSH2 0x1027 JUMP JUMPDEST PUSH2 0x9B7 JUMP JUMPDEST PUSH2 0x255 PUSH2 0x213 CALLDATASIZE PUSH1 0x4 PUSH2 0xEC7 JUMP JUMPDEST PUSH1 0x3 PUSH1 0x20 DUP2 SWAP1 MSTORE PUSH1 0x0 SWAP2 DUP3 MSTORE PUSH1 0x40 SWAP1 SWAP2 KECCAK256 DUP1 SLOAD PUSH1 0x1 DUP3 ADD SLOAD PUSH1 0x2 DUP4 ADD SLOAD SWAP3 SWAP1 SWAP4 ADD SLOAD SWAP1 SWAP3 PUSH1 0x1 PUSH1 0x1 PUSH1 0xA0 SHL SUB DUP1 DUP3 AND SWAP4 PUSH1 0x1 PUSH1 0xA0 SHL SWAP1 SWAP3 DIV PUSH1 0xFF AND SWAP3 SWAP2 AND SWAP1 DUP6 JUMP JUMPDEST PUSH1 0x40 DUP1 MLOAD SWAP6 DUP7 MSTORE PUSH1 0x1 PUSH1 0x1 PUSH1 0xA0 SHL SUB SWAP5 DUP6 AND PUSH1 0x20 DUP8 ADD MSTORE SWAP3 ISZERO ISZERO SWAP3 DUP6 ADD SWAP3 SWAP1 SWAP3 MSTORE SWAP1 SWAP2 AND PUSH1 0x60 DUP4 ADD MSTORE PUSH1 0x80 DUP3 ADD MSTORE PUSH1 0xA0 ADD PUSH2 0xD8 JUMP JUMPDEST PUSH2 0xF4 PUSH2 0x299 CALLDATASIZE PUSH1 0x4 PUSH2 0x106C JUMP JUMPDEST PUSH2 0xDE5 JUMP JUMPDEST PUSH2 0x2A6 PUSH2 0xE20 JUMP JUMPDEST PUSH1 0x1 PUSH1 0x1 PUSH1 0xA0 SHL SUB DUP2 AND PUSH2 0x301 JUMPI PUSH1 0x40 MLOAD PUSH3 0x461BCD PUSH1 0xE5 SHL DUP2 MSTORE PUSH1 0x20 PUSH1 0x4 DUP3 ADD MSTORE PUSH1 0x18 PUSH1 0x24 DUP3 ADD MSTORE PUSH32 0x496E76616C696420637573746F6D657220616464726573730000000000000000 PUSH1 0x44 DUP3 ADD MSTORE PUSH1 0x64 ADD JUMPDEST PUSH1 0x40 MLOAD DUP1 SWAP2 SUB SWAP1 REVERT JUMPDEST PUSH1 0x0 DUP3 PUSH1 0x40 MLOAD PUSH1 0x20 ADD PUSH2 0x314 SWAP2 SWAP1 PUSH2 0x1090 JUMP JUMPDEST PUSH1 0x40 DUP1 MLOAD PUSH1 0x1F NOT DUP2 DUP5 SUB ADD DUP2 MSTORE SWAP2 DUP2 MSTORE DUP2 MLOAD PUSH1 0x20 SWAP3 DUP4 ADD KECCAK256 PUSH1 0x0 DUP2 DUP2 MSTORE PUSH1 0x3 SWAP1 SWAP4 MSTORE SWAP2 KECCAK256 PUSH1 0x1 DUP2 ADD SLOAD SWAP2 SWAP3 POP SWAP1 PUSH1 0x1 PUSH1 0x1 PUSH1 0xA0 SHL SUB AND PUSH2 0x38B JUMPI PUSH1 0x40 MLOAD PUSH3 0x461BCD PUSH1 0xE5 SHL DUP2 MSTORE PUSH1 0x20 PUSH1 0x4 DUP3 ADD MSTORE PUSH1 0x12 PUSH1 0x24 DUP3 ADD MSTORE PUSH18 0x496E76616C696420636C61696D20636F6465 PUSH1 0x70 SHL PUSH1 0x44 DUP3 ADD MSTORE PUSH1 0x64 ADD PUSH2 0x2F8 JUMP JUMPDEST PUSH1 0x1 DUP2 ADD SLOAD PUSH1 0x1 PUSH1 0xA0 SHL SWAP1 DIV PUSH1 0xFF AND ISZERO PUSH2 0x3DC JUMPI PUSH1 0x40 MLOAD PUSH3 0x461BCD PUSH1 0xE5 SHL DUP2 MSTORE PUSH1 0x20 PUSH1 0x4 DUP3 ADD MSTORE PUSH1 0x12 PUSH1 0x24 DUP3 ADD MSTORE PUSH18 0x10DB185A5B48185B1C9958591E481D5CD959 PUSH1 0x72 SHL PUSH1 0x44 DUP3 ADD MSTORE PUSH1 0x64 ADD PUSH2 0x2F8 JUMP JUMPDEST PUSH1 0x1 DUP2 ADD SLOAD PUSH1 0x2 SLOAD DUP3 SLOAD PUSH1 0x40 MLOAD PUSH4 0x31A9108F PUSH1 0xE1 SHL DUP2 MSTORE PUSH1 0x4 DUP2 ADD SWAP2 SWAP1 SWAP2 MSTORE PUSH1 0x1 PUSH1 0x1 PUSH1 0xA0 SHL SUB SWAP3 DUP4 AND SWAP3 SWAP1 SWAP2 AND SWAP1 PUSH4 0x6352211E SWAP1 PUSH1 0x24 ADD PUSH1 0x20 PUSH1 0x40 MLOAD DUP1 DUP4 SUB DUP2 DUP7 GAS STATICCALL ISZERO DUP1 ISZERO PUSH2 0x431 JUMPI RETURNDATASIZE PUSH1 0x0 DUP1 RETURNDATACOPY RETURNDATASIZE PUSH1 0x0 REVERT JUMPDEST POP POP POP POP PUSH1 0x40 MLOAD RETURNDATASIZE PUSH1 0x1F NOT PUSH1 0x1F DUP3 ADD AND DUP3 ADD DUP1 PUSH1 0x40 MSTORE POP DUP2 ADD SWAP1 PUSH2 0x455 SWAP2 SWAP1 PUSH2 0x10BF JUMP JUMPDEST PUSH1 0x1 PUSH1 0x1 PUSH1 0xA0 SHL SUB AND EQ PUSH2 0x4AB JUMPI PUSH1 0x40 MLOAD PUSH3 0x461BCD PUSH1 0xE5 SHL DUP2 MSTORE PUSH1 0x20 PUSH1 0x4 DUP3 ADD MSTORE PUSH1 0x1B PUSH1 0x24 DUP3 ADD MSTORE PUSH32 0x52657461696C6572206E6F206C6F6E676572206F776E73204E46540000000000 PUSH1 0x44 DUP3 ADD MSTORE PUSH1 0x64 ADD PUSH2 0x2F8 JUMP JUMPDEST PUSH1 0x2 SLOAD DUP2 SLOAD PUSH1 0x40 MLOAD PUSH4 0x20604BF PUSH1 0xE2 SHL DUP2 MSTORE PUSH1 0x4 DUP2 ADD SWAP2 SWAP1 SWAP2 MSTORE PUSH1 0x0 SWAP2 PUSH1 0x1 PUSH1 0x1 PUSH1 0xA0 SHL SUB AND SWAP1 PUSH4 0x81812FC SWAP1 PUSH1 0x24 ADD PUSH1 0x20 PUSH1 0x40 MLOAD DUP1 DUP4 SUB DUP2 DUP7 GAS STATICCALL ISZERO DUP1 ISZERO PUSH2 0x4F8 JUMPI RETURNDATASIZE PUSH1 0x0 DUP1 RETURNDATACOPY RETURNDATASIZE PUSH1 0x0 REVERT JUMPDEST POP POP POP POP PUSH1 0x40 MLOAD RETURNDATASIZE PUSH1 0x1F NOT PUSH1 0x1F DUP3 ADD AND DUP3 ADD DUP1 PUSH1 0x40 MSTORE POP DUP2 ADD SWAP1 PUSH2 0x51C SWAP2 SWAP1 PUSH2 0x10BF JUMP JUMPDEST SWAP1 POP PUSH1 0x1 PUSH1 0x1 PUSH1 0xA0 SHL SUB DUP2 AND ADDRESS EQ DUP1 PUSH2 0x5A8 JUMPI POP PUSH1 0x2 SLOAD PUSH1 0x1 DUP4 ADD SLOAD PUSH1 0x40 MLOAD PUSH4 0xE985E9C5 PUSH1 0xE0 SHL DUP2 MSTORE PUSH1 0x1 PUSH1 0x1 PUSH1 0xA0 SHL SUB SWAP2 DUP3 AND PUSH1 0x4 DUP3 ADD MSTORE ADDRESS PUSH1 0x24 DUP3 ADD MSTORE SWAP2 AND SWAP1 PUSH4 0xE985E9C5 SWAP1 PUSH1 0x44 ADD PUSH1 0x20 PUSH1 0x40 MLOAD DUP1 DUP4 SUB DUP2 DUP7 GAS STATICCALL ISZERO DUP1 ISZERO PUSH2 0x584 JUMPI RETURNDATASIZE PUSH1 0x0 DUP1 RETURNDATACOPY RETURNDATASIZE PUSH1 0x0 REVERT JUMPDEST POP POP POP POP PUSH1 0x40 MLOAD RETURNDATASIZE PUSH1 0x1F NOT PUSH1 0x1F DUP3 ADD AND DUP3 ADD DUP1 PUSH1 0x40 MSTORE POP DUP2 ADD SWAP1 PUSH2 0x5A8 SWAP2 SWAP1 PUSH2 0x10DC JUMP JUMPDEST PUSH2 0x5F4 JUMPI PUSH1 0x40 MLOAD PUSH3 0x461BCD PUSH1 0xE5 SHL DUP2 MSTORE PUSH1 0x20 PUSH1 0x4 DUP3 ADD MSTORE PUSH1 0x1B PUSH1 0x24 DUP3 ADD MSTORE PUSH32 0x436F6E7472616374206E6F206C6F6E67657220617070726F7665640000000000 PUSH1 0x44 DUP3 ADD MSTORE PUSH1 0x64 ADD PUSH2 0x2F8 JUMP JUMPDEST PUSH1 0x1 DUP3 ADD DUP1 SLOAD PUSH1 0xFF PUSH1 0xA0 SHL NOT AND PUSH1 0x1 PUSH1 0xA0 SHL OR DUP2 SSTORE PUSH1 0x2 DUP1 DUP5 ADD DUP1 SLOAD PUSH1 0x1 PUSH1 0x1 PUSH1 0xA0 SHL SUB DUP9 DUP2 AND PUSH1 0x1 PUSH1 0x1 PUSH1 0xA0 SHL SUB NOT SWAP1 SWAP3 AND DUP3 OR SWAP1 SWAP3 SSTORE TIMESTAMP PUSH1 0x3 DUP8 ADD SSTORE DUP6 SLOAD PUSH1 0x0 SWAP1 DUP2 MSTORE PUSH1 0x4 PUSH1 0x20 DUP2 SWAP1 MSTORE PUSH1 0x40 DUP1 DUP4 KECCAK256 SWAP3 SWAP1 SWAP3 SSTORE SWAP4 SLOAD SWAP5 SLOAD DUP8 SLOAD SWAP2 MLOAD PUSH4 0x23B872DD PUSH1 0xE0 SHL DUP2 MSTORE SWAP1 DUP5 AND SWAP5 DUP2 ADD SWAP5 SWAP1 SWAP5 MSTORE PUSH1 0x24 DUP5 ADD SWAP2 SWAP1 SWAP2 MSTORE PUSH1 0x44 DUP4 ADD MSTORE SWAP2 SWAP1 SWAP2 AND SWAP1 PUSH4 0x23B872DD SWAP1 PUSH1 0x64 ADD PUSH1 0x0 PUSH1 0x40 MLOAD DUP1 DUP4 SUB DUP2 PUSH1 0x0 DUP8 DUP1 EXTCODESIZE ISZERO DUP1 ISZERO PUSH2 0x69A JUMPI PUSH1 0x0 DUP1 REVERT JUMPDEST POP GAS CALL ISZERO DUP1 ISZERO PUSH2 0x6AE JUMPI RETURNDATASIZE PUSH1 0x0 DUP1 RETURNDATACOPY RETURNDATASIZE PUSH1 0x0 REVERT JUMPDEST POP POP DUP4 SLOAD PUSH1 0x1 DUP6 ADD SLOAD PUSH1 0x40 MLOAD PUSH1 0x1 PUSH1 0x1 PUSH1 0xA0 SHL SUB SWAP2 DUP3 AND DUP2 MSTORE SWAP1 DUP9 AND SWAP4 POP SWAP1 SWAP2 POP DUP6 SWAP1 PUSH32 0x2445D773C66ED16C943BA99DBAF1E078AB6DF9DCC6EA87A9AA67DBBAF4B33A78 SWAP1 PUSH1 0x20 ADD PUSH1 0x40 MLOAD DUP1 SWAP2 SUB SWAP1 LOG4 POP POP POP PUSH2 0x70A PUSH1 0x1 DUP1 SSTORE JUMP JUMPDEST POP POP JUMP JUMPDEST PUSH2 0x716 PUSH2 0xE20 JUMP JUMPDEST PUSH1 0x0 DUP2 PUSH1 0x40 MLOAD PUSH1 0x20 ADD PUSH2 0x729 SWAP2 SWAP1 PUSH2 0x1090 JUMP JUMPDEST PUSH1 0x40 DUP1 MLOAD PUSH1 0x1F NOT DUP2 DUP5 SUB ADD DUP2 MSTORE SWAP2 DUP2 MSTORE DUP2 MLOAD PUSH1 0x20 SWAP3 DUP4 ADD KECCAK256 PUSH1 0x0 DUP2 DUP2 MSTORE PUSH1 0x3 SWAP1 SWAP4 MSTORE SWAP2 KECCAK256 PUSH1 0x1 DUP2 ADD SLOAD SWAP2 SWAP3 POP SWAP1 PUSH1 0x1 PUSH1 0x1 PUSH1 0xA0 SHL SUB AND CALLER EQ PUSH2 0x7AD JUMPI PUSH1 0x40 MLOAD PUSH3 0x461BCD PUSH1 0xE5 SHL DUP2 MSTORE PUSH1 0x20 PUSH1 0x4 DUP3 ADD MSTORE PUSH1 0x18 PUSH1 0x24 DUP3 ADD MSTORE PUSH32 0x4F6E6C792072657461696C65722063616E2063616E63656C0000000000000000 PUSH1 0x44 DUP3 ADD MSTORE PUSH1 0x64 ADD PUSH2 0x2F8 JUMP JUMPDEST PUSH1 0x1 DUP2 ADD SLOAD PUSH1 0x1 PUSH1 0xA0 SHL SWAP1 DIV PUSH1 0xFF AND ISZERO PUSH2 0x7FE JUMPI PUSH1 0x40 MLOAD PUSH3 0x461BCD PUSH1 0xE5 SHL DUP2 MSTORE PUSH1 0x20 PUSH1 0x4 DUP3 ADD MSTORE PUSH1 0x12 PUSH1 0x24 DUP3 ADD MSTORE PUSH18 0x10DB185A5B48185B1C9958591E481D5CD959 PUSH1 0x72 SHL PUSH1 0x44 DUP3 ADD MSTORE PUSH1 0x64 ADD PUSH2 0x2F8 JUMP JUMPDEST DUP1 SLOAD PUSH1 0x0 DUP2 DUP2 MSTORE PUSH1 0x4 PUSH1 0x20 SWAP1 DUP2 MSTORE PUSH1 0x40 DUP1 DUP4 KECCAK256 DUP4 SWAP1 SSTORE DUP6 DUP4 MSTORE PUSH1 0x3 SWAP2 DUP3 SWAP1 MSTORE DUP1 DUP4 KECCAK256 DUP4 DUP2 SSTORE PUSH1 0x1 DUP2 ADD DUP1 SLOAD PUSH1 0x1 PUSH1 0x1 PUSH1 0xA8 SHL SUB NOT AND SWAP1 SSTORE PUSH1 0x2 DUP2 ADD DUP1 SLOAD PUSH1 0x1 PUSH1 0x1 PUSH1 0xA0 SHL SUB NOT AND SWAP1 SSTORE SWAP1 SWAP2 ADD DUP3 SWAP1 SSTORE MLOAD CALLER SWAP2 DUP4 SWAP2 DUP7 SWAP2 PUSH32 0x60B95CA8429FA51AD63157B7E4A33C4441432D3E1E2D056B352533ED87FA2846 SWAP2 LOG4 POP POP POP PUSH2 0x883 PUSH1 0x1 DUP1 SSTORE JUMP JUMPDEST POP JUMP JUMPDEST PUSH1 0x40 DUP1 MLOAD PUSH1 0xA0 DUP2 ADD DUP3 MSTORE PUSH1 0x0 DUP1 DUP3 MSTORE PUSH1 0x20 DUP3 ADD DUP2 SWAP1 MSTORE SWAP2 DUP2 ADD DUP3 SWAP1 MSTORE PUSH1 0x60 DUP2 ADD DUP3 SWAP1 MSTORE PUSH1 0x80 DUP2 ADD SWAP2 SWAP1 SWAP2 MSTORE PUSH1 0x0 DUP3 PUSH1 0x40 MLOAD PUSH1 0x20 ADD PUSH2 0x8C4 SWAP2 SWAP1 PUSH2 0x1090 JUMP JUMPDEST PUSH1 0x40 DUP1 MLOAD DUP1 DUP4 SUB PUSH1 0x1F NOT ADD DUP2 MSTORE DUP3 DUP3 MSTORE DUP1 MLOAD PUSH1 0x20 SWAP2 DUP3 ADD KECCAK256 PUSH1 0x0 SWAP1 DUP2 MSTORE PUSH1 0x3 DUP1 DUP4 MSTORE SWAP1 DUP4 SWAP1 KECCAK256 PUSH1 0xA0 DUP6 ADD DUP5 MSTORE DUP1 SLOAD DUP6 MSTORE PUSH1 0x1 DUP2 ADD SLOAD PUSH1 0x1 PUSH1 0x1 PUSH1 0xA0 SHL SUB DUP1 DUP3 AND SWAP5 DUP8 ADD SWAP5 SWAP1 SWAP5 MSTORE PUSH1 0x1 PUSH1 0xA0 SHL SWAP1 DIV PUSH1 0xFF AND ISZERO ISZERO SWAP4 DUP6 ADD SWAP4 SWAP1 SWAP4 MSTORE PUSH1 0x2 DUP4 ADD SLOAD SWAP1 SWAP2 AND PUSH1 0x60 DUP5 ADD MSTORE ADD SLOAD PUSH1 0x80 DUP3 ADD MSTORE SWAP4 SWAP3 POP POP POP JUMP JUMPDEST PUSH1 0x0 DUP1 PUSH1 0x0 DUP1 PUSH1 0x0 DUP6 PUSH1 0x40 MLOAD PUSH1 0x20 ADD PUSH2 0x952 SWAP2 SWAP1 PUSH2 0x1090 JUMP JUMPDEST PUSH1 0x40 DUP1 MLOAD DUP1 DUP4 SUB PUSH1 0x1F NOT ADD DUP2 MSTORE SWAP2 DUP2 MSTORE DUP2 MLOAD PUSH1 0x20 SWAP3 DUP4 ADD KECCAK256 PUSH1 0x0 SWAP1 DUP2 MSTORE PUSH1 0x3 SWAP1 SWAP3 MSTORE SWAP1 KECCAK256 PUSH1 0x1 DUP2 ADD SLOAD SWAP1 SLOAD PUSH1 0x1 PUSH1 0x1 PUSH1 0xA0 SHL SUB DUP3 AND DUP1 ISZERO ISZERO SWAP10 SWAP2 SWAP9 POP SWAP7 POP PUSH1 0x1 PUSH1 0xA0 SHL SWAP1 SWAP2 DIV PUSH1 0xFF AND SWAP5 POP SWAP3 POP POP POP JUMP JUMPDEST PUSH2 0x9AB PUSH2 0xE4A JUMP JUMPDEST PUSH2 0x9B5 PUSH1 0x0 PUSH2 0xE77 JUMP JUMPDEST JUMP JUMPDEST PUSH2 0x9BF PUSH2 0xE20 JUMP JUMPDEST PUSH1 0x0 DUP3 MLOAD GT PUSH2 0xA10 JUMPI PUSH1 0x40 MLOAD PUSH3 0x461BCD PUSH1 0xE5 SHL DUP2 MSTORE PUSH1 0x20 PUSH1 0x4 DUP3 ADD MSTORE PUSH1 0x1A PUSH1 0x24 DUP3 ADD MSTORE PUSH32 0x436C61696D20636F64652063616E6E6F7420626520656D707479000000000000 PUSH1 0x44 DUP3 ADD MSTORE PUSH1 0x64 ADD PUSH2 0x2F8 JUMP JUMPDEST PUSH1 0x2 SLOAD PUSH1 0x40 MLOAD PUSH4 0x31A9108F PUSH1 0xE1 SHL DUP2 MSTORE PUSH1 0x4 DUP2 ADD DUP4 SWAP1 MSTORE CALLER SWAP2 PUSH1 0x1 PUSH1 0x1 PUSH1 0xA0 SHL SUB AND SWAP1 PUSH4 0x6352211E SWAP1 PUSH1 0x24 ADD PUSH1 0x20 PUSH1 0x40 MLOAD DUP1 DUP4 SUB DUP2 DUP7 GAS STATICCALL ISZERO DUP1 ISZERO PUSH2 0xA59 JUMPI RETURNDATASIZE PUSH1 0x0 DUP1 RETURNDATACOPY RETURNDATASIZE PUSH1 0x0 REVERT JUMPDEST POP POP POP POP PUSH1 0x40 MLOAD RETURNDATASIZE PUSH1 0x1F NOT PUSH1 0x1F DUP3 ADD AND DUP3 ADD DUP1 PUSH1 0x40 MSTORE POP DUP2 ADD SWAP1 PUSH2 0xA7D SWAP2 SWAP1 PUSH2 0x10BF JUMP JUMPDEST PUSH1 0x1 PUSH1 0x1 PUSH1 0xA0 SHL SUB AND EQ PUSH2 0xACC JUMPI PUSH1 0x40 MLOAD PUSH3 0x461BCD PUSH1 0xE5 SHL DUP2 MSTORE PUSH1 0x20 PUSH1 0x4 DUP3 ADD MSTORE PUSH1 0x16 PUSH1 0x24 DUP3 ADD MSTORE PUSH22 0x165BDD48191BDB89DD081BDDDB881D1A1A5CC8139195 PUSH1 0x52 SHL PUSH1 0x44 DUP3 ADD MSTORE PUSH1 0x64 ADD PUSH2 0x2F8 JUMP JUMPDEST PUSH1 0x2 SLOAD PUSH1 0x40 MLOAD PUSH4 0x20604BF PUSH1 0xE2 SHL DUP2 MSTORE PUSH1 0x4 DUP2 ADD DUP4 SWAP1 MSTORE PUSH1 0x0 SWAP2 PUSH1 0x1 PUSH1 0x1 PUSH1 0xA0 SHL SUB AND SWAP1 PUSH4 0x81812FC SWAP1 PUSH1 0x24 ADD PUSH1 0x20 PUSH1 0x40 MLOAD DUP1 DUP4 SUB DUP2 DUP7 GAS STATICCALL ISZERO DUP1 ISZERO PUSH2 0xB16 JUMPI RETURNDATASIZE PUSH1 0x0 DUP1 RETURNDATACOPY RETURNDATASIZE PUSH1 0x0 REVERT JUMPDEST POP POP POP POP PUSH1 0x40 MLOAD RETURNDATASIZE PUSH1 0x1F NOT PUSH1 0x1F DUP3 ADD AND DUP3 ADD DUP1 PUSH1 0x40 MSTORE POP DUP2 ADD SWAP1 PUSH2 0xB3A SWAP2 SWAP1 PUSH2 0x10BF JUMP JUMPDEST SWAP1 POP PUSH1 0x1 PUSH1 0x1 PUSH1 0xA0 SHL SUB DUP2 AND ADDRESS EQ DUP1 PUSH2 0xBC0 JUMPI POP PUSH1 0x2 SLOAD PUSH1 0x40 MLOAD PUSH4 0xE985E9C5 PUSH1 0xE0 SHL DUP2 MSTORE CALLER PUSH1 0x4 DUP3 ADD MSTORE ADDRESS PUSH1 0x24 DUP3 ADD MSTORE PUSH1 0x1 PUSH1 0x1 PUSH1 0xA0 SHL SUB SWAP1 SWAP2 AND SWAP1 PUSH4 0xE985E9C5 SWAP1 PUSH1 0x44 ADD PUSH1 0x20 PUSH1 0x40 MLOAD DUP1 DUP4 SUB DUP2 DUP7 GAS STATICCALL ISZERO DUP1 ISZERO PUSH2 0xB9C JUMPI RETURNDATASIZE PUSH1 0x0 DUP1 RETURNDATACOPY RETURNDATASIZE PUSH1 0x0 REVERT JUMPDEST POP POP POP POP PUSH1 0x40 MLOAD RETURNDATASIZE PUSH1 0x1F NOT PUSH1 0x1F DUP3 ADD AND DUP3 ADD DUP1 PUSH1 0x40 MSTORE POP DUP2 ADD SWAP1 PUSH2 0xBC0 SWAP2 SWAP1 PUSH2 0x10DC JUMP JUMPDEST PUSH2 0xC17 JUMPI PUSH1 0x40 MLOAD PUSH3 0x461BCD PUSH1 0xE5 SHL DUP2 MSTORE PUSH1 0x20 PUSH1 0x4 DUP3 ADD MSTORE PUSH1 0x22 PUSH1 0x24 DUP3 ADD MSTORE PUSH32 0x436F6E7472616374206E6F7420617070726F76656420666F722074686973204E PUSH1 0x44 DUP3 ADD MSTORE PUSH2 0x1195 PUSH1 0xF2 SHL PUSH1 0x64 DUP3 ADD MSTORE PUSH1 0x84 ADD PUSH2 0x2F8 JUMP JUMPDEST PUSH1 0x0 DUP4 PUSH1 0x40 MLOAD PUSH1 0x20 ADD PUSH2 0xC2A SWAP2 SWAP1 PUSH2 0x1090 JUMP JUMPDEST PUSH1 0x40 DUP1 MLOAD PUSH1 0x1F NOT DUP2 DUP5 SUB ADD DUP2 MSTORE SWAP2 DUP2 MSTORE DUP2 MLOAD PUSH1 0x20 SWAP3 DUP4 ADD KECCAK256 PUSH1 0x0 DUP2 DUP2 MSTORE PUSH1 0x3 SWAP1 SWAP4 MSTORE SWAP2 KECCAK256 PUSH1 0x1 ADD SLOAD SWAP1 SWAP2 POP PUSH1 0x1 PUSH1 0x1 PUSH1 0xA0 SHL SUB AND ISZERO PUSH2 0xCAB JUMPI PUSH1 0x40 MLOAD PUSH3 0x461BCD PUSH1 0xE5 SHL DUP2 MSTORE PUSH1 0x20 PUSH1 0x4 DUP3 ADD MSTORE PUSH1 0x19 PUSH1 0x24 DUP3 ADD MSTORE PUSH32 0x436C61696D20636F646520616C72656164792065786973747300000000000000 PUSH1 0x44 DUP3 ADD MSTORE PUSH1 0x64 ADD PUSH2 0x2F8 JUMP JUMPDEST PUSH1 0x0 DUP4 DUP2 MSTORE PUSH1 0x4 PUSH1 0x20 MSTORE PUSH1 0x40 SWAP1 KECCAK256 SLOAD ISZERO PUSH2 0xD11 JUMPI PUSH1 0x40 MLOAD PUSH3 0x461BCD PUSH1 0xE5 SHL DUP2 MSTORE PUSH1 0x20 PUSH1 0x4 DUP3 ADD MSTORE PUSH1 0x21 PUSH1 0x24 DUP3 ADD MSTORE PUSH32 0x546F6B656E20616C72656164792068617320616E2061637469766520636C6169 PUSH1 0x44 DUP3 ADD MSTORE PUSH1 0x6D PUSH1 0xF8 SHL PUSH1 0x64 DUP3 ADD MSTORE PUSH1 0x84 ADD PUSH2 0x2F8 JUMP JUMPDEST PUSH1 0x40 DUP1 MLOAD PUSH1 0xA0 DUP2 ADD DUP3 MSTORE DUP5 DUP2 MSTORE CALLER PUSH1 0x20 DUP1 DUP4 ADD DUP3 DUP2 MSTORE PUSH1 0x0 DUP5 DUP7 ADD DUP2 DUP2 MSTORE PUSH1 0x60 DUP7 ADD DUP3 DUP2 MSTORE PUSH1 0x80 DUP8 ADD DUP4 DUP2 MSTORE DUP10 DUP5 MSTORE PUSH1 0x3 DUP1 DUP8 MSTORE DUP10 DUP6 KECCAK256 SWAP9 MLOAD DUP10 SSTORE SWAP5 MLOAD PUSH1 0x1 DUP10 ADD DUP1 SLOAD SWAP5 MLOAD ISZERO ISZERO PUSH1 0x1 PUSH1 0xA0 SHL MUL PUSH1 0x1 PUSH1 0x1 PUSH1 0xA8 SHL SUB NOT SWAP1 SWAP6 AND PUSH1 0x1 PUSH1 0x1 PUSH1 0xA0 SHL SUB SWAP3 DUP4 AND OR SWAP5 SWAP1 SWAP5 OR SWAP1 SWAP4 SSTORE SWAP1 MLOAD PUSH1 0x2 DUP9 ADD DUP1 SLOAD SWAP2 SWAP1 SWAP4 AND PUSH1 0x1 PUSH1 0x1 PUSH1 0xA0 SHL SUB NOT SWAP2 SWAP1 SWAP2 AND OR SWAP1 SWAP2 SSTORE MLOAD SWAP5 SWAP1 SWAP2 ADD SWAP4 SWAP1 SWAP4 SSTORE DUP7 DUP4 MSTORE PUSH1 0x4 SWAP1 MSTORE DUP3 DUP3 KECCAK256 DUP5 SWAP1 SSTORE SWAP2 MLOAD DUP6 SWAP2 DUP5 SWAP2 PUSH32 0x197763950DC3D29DD58DDD2193F9FE16477587B73CBD1FA99458C760F162F9DD SWAP2 SWAP1 LOG4 POP POP PUSH2 0x70A PUSH1 0x1 DUP1 SSTORE JUMP JUMPDEST PUSH2 0xDED PUSH2 0xE4A JUMP JUMPDEST PUSH1 0x1 PUSH1 0x1 PUSH1 0xA0 SHL SUB DUP2 AND PUSH2 0xE17 JUMPI PUSH1 0x40 MLOAD PUSH4 0x1E4FBDF7 PUSH1 0xE0 SHL DUP2 MSTORE PUSH1 0x0 PUSH1 0x4 DUP3 ADD MSTORE PUSH1 0x24 ADD PUSH2 0x2F8 JUMP JUMPDEST PUSH2 0x883 DUP2 PUSH2 0xE77 JUMP JUMPDEST PUSH1 0x2 PUSH1 0x1 SLOAD SUB PUSH2 0xE43 JUMPI PUSH1 0x40 MLOAD PUSH4 0x3EE5AEB5 PUSH1 0xE0 SHL DUP2 MSTORE PUSH1 0x4 ADD PUSH1 0x40 MLOAD DUP1 SWAP2 SUB SWAP1 REVERT JUMPDEST PUSH1 0x2 PUSH1 0x1 SSTORE JUMP JUMPDEST PUSH1 0x0 SLOAD PUSH1 0x1 PUSH1 0x1 PUSH1 0xA0 SHL SUB AND CALLER EQ PUSH2 0x9B5 JUMPI PUSH1 0x40 MLOAD PUSH4 0x118CDAA7 PUSH1 0xE0 SHL DUP2 MSTORE CALLER PUSH1 0x4 DUP3 ADD MSTORE PUSH1 0x24 ADD PUSH2 0x2F8 JUMP JUMPDEST PUSH1 0x0 DUP1 SLOAD PUSH1 0x1 PUSH1 0x1 PUSH1 0xA0 SHL SUB DUP4 DUP2 AND PUSH1 0x1 PUSH1 0x1 PUSH1 0xA0 SHL SUB NOT DUP4 AND DUP2 OR DUP5 SSTORE PUSH1 0x40 MLOAD SWAP2 SWAP1 SWAP3 AND SWAP3 DUP4 SWAP2 PUSH32 0x8BE0079C531659141344CD1FD0A4F28419497F9722A3DAAFE3B4186F6B6457E0 SWAP2 SWAP1 LOG3 POP POP JUMP JUMPDEST PUSH1 0x0 PUSH1 0x20 DUP3 DUP5 SUB SLT ISZERO PUSH2 0xED9 JUMPI PUSH1 0x0 DUP1 REVERT JUMPDEST POP CALLDATALOAD SWAP2 SWAP1 POP JUMP JUMPDEST PUSH4 0x4E487B71 PUSH1 0xE0 SHL PUSH1 0x0 MSTORE PUSH1 0x41 PUSH1 0x4 MSTORE PUSH1 0x24 PUSH1 0x0 REVERT JUMPDEST PUSH1 0x0 DUP3 PUSH1 0x1F DUP4 ADD SLT PUSH2 0xF07 JUMPI PUSH1 0x0 DUP1 REVERT JUMPDEST DUP2 CALLDATALOAD PUSH8 0xFFFFFFFFFFFFFFFF DUP1 DUP3 GT ISZERO PUSH2 0xF22 JUMPI PUSH2 0xF22 PUSH2 0xEE0 JUMP JUMPDEST PUSH1 0x40 MLOAD PUSH1 0x1F DUP4 ADD PUSH1 0x1F NOT SWAP1 DUP2 AND PUSH1 0x3F ADD AND DUP2 ADD SWAP1 DUP3 DUP3 GT DUP2 DUP4 LT OR ISZERO PUSH2 0xF4A JUMPI PUSH2 0xF4A PUSH2 0xEE0 JUMP JUMPDEST DUP2 PUSH1 0x40 MSTORE DUP4 DUP2 MSTORE DUP7 PUSH1 0x20 DUP6 DUP9 ADD ADD GT ISZERO PUSH2 0xF63 JUMPI PUSH1 0x0 DUP1 REVERT JUMPDEST DUP4 PUSH1 0x20 DUP8 ADD PUSH1 0x20 DUP4 ADD CALLDATACOPY PUSH1 0x0 PUSH1 0x20 DUP6 DUP4 ADD ADD MSTORE DUP1 SWAP5 POP POP POP POP POP SWAP3 SWAP2 POP POP JUMP JUMPDEST PUSH1 0x1 PUSH1 0x1 PUSH1 0xA0 SHL SUB DUP2 AND DUP2 EQ PUSH2 0x883 JUMPI PUSH1 0x0 DUP1 REVERT JUMPDEST PUSH1 0x0 DUP1 PUSH1 0x40 DUP4 DUP6 SUB SLT ISZERO PUSH2 0xFAB JUMPI PUSH1 0x0 DUP1 REVERT JUMPDEST DUP3 CALLDATALOAD PUSH8 0xFFFFFFFFFFFFFFFF DUP2 GT ISZERO PUSH2 0xFC2 JUMPI PUSH1 0x0 DUP1 REVERT JUMPDEST PUSH2 0xFCE DUP6 DUP3 DUP7 ADD PUSH2 0xEF6 JUMP JUMPDEST SWAP3 POP POP PUSH1 0x20 DUP4 ADD CALLDATALOAD PUSH2 0xFDF DUP2 PUSH2 0xF83 JUMP JUMPDEST DUP1 SWAP2 POP POP SWAP3 POP SWAP3 SWAP1 POP JUMP JUMPDEST PUSH1 0x0 PUSH1 0x20 DUP3 DUP5 SUB SLT ISZERO PUSH2 0xFFC JUMPI PUSH1 0x0 DUP1 REVERT JUMPDEST DUP2 CALLDATALOAD PUSH8 0xFFFFFFFFFFFFFFFF DUP2 GT ISZERO PUSH2 0x1013 JUMPI PUSH1 0x0 DUP1 REVERT JUMPDEST PUSH2 0x101F DUP5 DUP3 DUP6 ADD PUSH2 0xEF6 JUMP JUMPDEST SWAP5 SWAP4 POP POP POP POP JUMP JUMPDEST PUSH1 0x0 DUP1 PUSH1 0x40 DUP4 DUP6 SUB SLT ISZERO PUSH2 0x103A JUMPI PUSH1 0x0 DUP1 REVERT JUMPDEST DUP3 CALLDATALOAD PUSH8 0xFFFFFFFFFFFFFFFF DUP2 GT ISZERO PUSH2 0x1051 JUMPI PUSH1 0x0 DUP1 REVERT JUMPDEST PUSH2 0x105D DUP6 DUP3 DUP7 ADD PUSH2 0xEF6 JUMP JUMPDEST SWAP6 PUSH1 0x20 SWAP5 SWAP1 SWAP5 ADD CALLDATALOAD SWAP5 POP POP POP POP JUMP JUMPDEST PUSH1 0x0 PUSH1 0x20 DUP3 DUP5 SUB SLT ISZERO PUSH2 0x107E JUMPI PUSH1 0x0 DUP1 REVERT JUMPDEST DUP2 CALLDATALOAD PUSH2 0x1089 DUP2 PUSH2 0xF83 JUMP JUMPDEST SWAP4 SWAP3 POP POP POP JUMP JUMPDEST PUSH1 0x0 DUP3 MLOAD PUSH1 0x0 JUMPDEST DUP2 DUP2 LT ISZERO PUSH2 0x10B1 JUMPI PUSH1 0x20 DUP2 DUP7 ADD DUP2 ADD MLOAD DUP6 DUP4 ADD MSTORE ADD PUSH2 0x1097 JUMP JUMPDEST POP PUSH1 0x0 SWAP3 ADD SWAP2 DUP3 MSTORE POP SWAP2 SWAP1 POP JUMP JUMPDEST PUSH1 0x0 PUSH1 0x20 DUP3 DUP5 SUB SLT ISZERO PUSH2 0x10D1 JUMPI PUSH1 0x0 DUP1 REVERT JUMPDEST DUP2 MLOAD PUSH2 0x1089 DUP2 PUSH2 0xF83 JUMP JUMPDEST PUSH1 0x0 PUSH1 0x20 DUP3 DUP5 SUB SLT ISZERO PUSH2 0x10EE JUMPI PUSH1 0x0 DUP1 REVERT JUMPDEST DUP2 MLOAD DUP1 ISZERO ISZERO DUP2 EQ PUSH2 0x1089 JUMPI PUSH1 0x0 DUP1 REVERT INVALID LOG2 PUSH5 0x6970667358 0x22 SLT KECCAK256 0xC7 PUSH31 0xF166D04478D320ACC23747D9414E7FA383DE925B48CA4E4A8B4316DE728564 PUSH20 0x6F6C634300081800330000000000000000000000 "},"methodIdentifiers":{"cancelClaim(string)":"2c94d194","checkClaim(string)":"529f8adf","claims(bytes32)":"eff0f592","createClaim(string,uint256)":"d7d5c065","executeClaim(string,address)":"1ea7fe66","getClaimInfo(string)":"4e4c1eb5","nftContract()":"d56d229d","owner()":"8da5cb5b","renounceOwnership()":"715018a6","tokenIdToClaim(uint256)":"14c3ccc8","transferOwnership(address)":"f2fde38b"}}}}}