{
  "_format": "hh-sol-artifact-1",
  "contractName": "NFTClaimContract",
  "sourceName": "contracts/NFTClaimContract.sol",
  "abi": [
    {
      "inputs": [
        {
          "internalType": "address",
          "name": "_nftContract",
          "type": "address"
        }
      ],
      "stateMutability": "nonpayable",
      "type": "constructor"
    },
    {
      "inputs": [
        {
          "internalType": "address",
          "name": "owner",
          "type": "address"
        }
      ],
      "name": "OwnableInvalidOwner",
      "type": "error"
    },
    {
      "inputs": [
        {
          "internalType": "address",
          "name": "account",
          "type": "address"
        }
      ],
      "name": "OwnableUnauthorizedAccount",
      "type": "error"
    },
    {
      "inputs": [],
      "name": "ReentrancyGuardReentrantCall",
      "type": "error"
    },
    {
      "anonymous": false,
      "inputs": [
        {
          "indexed": true,
          "internalType": "bytes32",
          "name": "claimCodeHash",
          "type": "bytes32"
        },
        {
          "indexed": true,
          "internalType": "uint256",
          "name": "tokenId",
          "type": "uint256"
        },
        {
          "indexed": true,
          "internalType": "address",
          "name": "retailer",
          "type": "address"
        }
      ],
      "name": "ClaimCancelled",
      "type": "event"
    },
    {
      "anonymous": false,
      "inputs": [
        {
          "indexed": true,
          "internalType": "bytes32",
          "name": "claimCodeHash",
          "type": "bytes32"
        },
        {
          "indexed": true,
          "internalType": "uint256",
          "name": "tokenId",
          "type": "uint256"
        },
        {
          "indexed": true,
          "internalType": "address",
          "name": "retailer",
          "type": "address"
        }
      ],
      "name": "ClaimCreated",
      "type": "event"
    },
    {
      "anonymous": false,
      "inputs": [
        {
          "indexed": true,
          "internalType": "bytes32",
          "name": "claimCodeHash",
          "type": "bytes32"
        },
        {
          "indexed": true,
          "internalType": "uint256",
          "name": "tokenId",
          "type": "uint256"
        },
        {
          "indexed": true,
          "internalType": "address",
          "name": "customer",
          "type": "address"
        },
        {
          "indexed": false,
          "internalType": "address",
          "name": "retailer",
          "type": "address"
        }
      ],
      "name": "ClaimExecuted",
      "type": "event"
    },
    {
      "anonymous": false,
      "inputs": [
        {
          "indexed": true,
          "internalType": "address",
          "name": "previousOwner",
          "type": "address"
        },
        {
          "indexed": true,
          "internalType": "address",
          "name": "newOwner",
          "type": "address"
        }
      ],
      "name": "OwnershipTransferred",
      "type": "event"
    },
    {
      "inputs": [
        {
          "internalType": "string",
          "name": "claimCode",
          "type": "string"
        }
      ],
      "name": "cancelClaim",
      "outputs": [],
      "stateMutability": "nonpayable",
      "type": "function"
    },
    {
      "inputs": [
        {
          "internalType": "string",
          "name": "claimCode",
          "type": "string"
        }
      ],
      "name": "checkClaim",
      "outputs": [
        {
          "internalType": "bool",
          "name": "isValid",
          "type": "bool"
        },
        {
          "internalType": "uint256",
          "name": "tokenId",
          "type": "uint256"
        },
        {
          "internalType": "address",
          "name": "retailer",
          "type": "address"
        },
        {
          "internalType": "bool",
          "name": "isClaimed",
          "type": "bool"
        }
      ],
      "stateMutability": "view",
      "type": "function"
    },
    {
      "inputs": [
        {
          "internalType": "bytes32",
          "name": "",
          "type": "bytes32"
        }
      ],
      "name": "claims",
      "outputs": [
        {
          "internalType": "uint256",
          "name": "tokenId",
          "type": "uint256"
        },
        {
          "internalType": "address",
          "name": "retailer",
          "type": "address"
        },
        {
          "internalType": "bool",
          "name": "isClaimed",
          "type": "bool"
        },
        {
          "internalType": "address",
          "name": "claimedBy",
          "type": "address"
        },
        {
          "internalType": "uint256",
          "name": "claimedAt",
          "type": "uint256"
        }
      ],
      "stateMutability": "view",
      "type": "function"
    },
    {
      "inputs": [
        {
          "internalType": "string",
          "name": "claimCode",
          "type": "string"
        },
        {
          "internalType": "uint256",
          "name": "tokenId",
          "type": "uint256"
        }
      ],
      "name": "createClaim",
      "outputs": [],
      "stateMutability": "nonpayable",
      "type": "function"
    },
    {
      "inputs": [
        {
          "internalType": "string[]",
          "name": "claimCodes",
          "type": "string[]"
        },
        {
          "internalType": "uint256[]",
          "name": "tokenIds",
          "type": "uint256[]"
        }
      ],
      "name": "createClaimBatch",
      "outputs": [],
      "stateMutability": "nonpayable",
      "type": "function"
    },
    {
      "inputs": [
        {
          "internalType": "string",
          "name": "claimCode",
          "type": "string"
        },
        {
          "internalType": "address",
          "name": "customerAddress",
          "type": "address"
        }
      ],
      "name": "executeClaim",
      "outputs": [],
      "stateMutability": "nonpayable",
      "type": "function"
    },
    {
      "inputs": [
        {
          "internalType": "string",
          "name": "claimCode",
          "type": "string"
        }
      ],
      "name": "getClaimInfo",
      "outputs": [
        {
          "components": [
            {
              "internalType": "uint256",
              "name": "tokenId",
              "type": "uint256"
            },
            {
              "internalType": "address",
              "name": "retailer",
              "type": "address"
            },
            {
              "internalType": "bool",
              "name": "isClaimed",
              "type": "bool"
            },
            {
              "internalType": "address",
              "name": "claimedBy",
              "type": "address"
            },
            {
              "internalType": "uint256",
              "name": "claimedAt",
              "type": "uint256"
            }
          ],
          "internalType": "struct NFTClaimContract.Claim",
          "name": "",
          "type": "tuple"
        }
      ],
      "stateMutability": "view",
      "type": "function"
    },
    {
      "inputs": [],
      "name": "nftContract",
      "outputs": [
        {
          "internalType": "contract IERC721",
          "name": "",
          "type": "address"
        }
      ],
      "stateMutability": "view",
      "type": "function"
    },
    {
      "inputs": [],
      "name": "owner",
      "outputs": [
        {
          "internalType": "address",
          "name": "",
          "type": "address"
        }
      ],
      "stateMutability": "view",
      "type": "function"
    },
    {
      "inputs": [],
      "name": "renounceOwnership",
      "outputs": [],
      "stateMutability": "nonpayable",
      "type": "function"
    },
    {
      "inputs": [
        {
          "internalType": "uint256",
          "name": "",
          "type": "uint256"
        }
      ],
      "name": "tokenIdToClaim",
      "outputs": [
        {
          "internalType": "bytes32",
          "name": "",
          "type": "bytes32"
        }
      ],
      "stateMutability": "view",
      "type": "function"
    },
    {
      "inputs": [
        {
          "internalType": "address",
          "name": "newOwner",
          "type": "address"
        }
      ],
      "name": "transferOwnership",
      "outputs": [],
      "stateMutability": "nonpayable",
      "type": "function"
    }
  ],
  "bytecode": "0x608060405234801561001057600080fd5b50604051620015a0380380620015a083398101604081905261003191610131565b338061005857604051631e4fbdf760e01b8152600060048201526024015b60405180910390fd5b610061816100e1565b50600180556001600160a01b0381166100bc5760405162461bcd60e51b815260206004820152601c60248201527f496e76616c6964204e465420636f6e7472616374206164647265737300000000604482015260640161004f565b600280546001600160a01b0319166001600160a01b0392909216919091179055610161565b600080546001600160a01b038381166001600160a01b0319831681178455604051919092169283917f8be0079c531659141344cd1fd0a4f28419497f9722a3daafe3b4186f6b6457e09190a35050565b60006020828403121561014357600080fd5b81516001600160a01b038116811461015a57600080fd5b9392505050565b61142f80620001716000396000f3fe608060405234801561001057600080fd5b50600436106100b45760003560e01c8063715018a611610071578063715018a6146101d05780638da5cb5b146101d8578063d56d229d146101fd578063d7d5c06514610210578063eff0f59214610223578063f2fde38b146102a957600080fd5b806314c3ccc8146100b95780631a066737146100ec5780631ea7fe66146101015780632c94d194146101145780634e4c1eb514610127578063529f8adf1461018a575b600080fd5b6100d96100c7366004611031565b60046020526000908152604090205481565b6040519081526020015b60405180910390f35b6100ff6100fa366004611194565b6102bc565b005b6100ff61010f36600461127d565b610403565b6100ff6101223660046112cf565b61086a565b61013a6101353660046112cf565b6109e2565b6040516100e39190815181526020808301516001600160a01b0390811691830191909152604080840151151590830152606080840151909116908201526080918201519181019190915260a00190565b61019d6101983660046112cf565b610a95565b6040516100e39493929190931515845260208401929092526001600160a01b031660408301521515606082015260800190565b6100ff610aff565b6000546001600160a01b03165b6040516001600160a01b0390911681526020016100e3565b6002546101e5906001600160a01b031681565b6100ff61021e36600461130c565b610b13565b610273610231366004611031565b6003602081905260009182526040909120805460018201546002830154929093015490926001600160a01b0380821693600160a01b90920460ff169291169085565b604080519586526001600160a01b039485166020870152921515928501929092529091166060830152608082015260a0016100e3565b6100ff6102b7366004611351565b610b2e565b6102c4610b69565b80518251146103135760405162461bcd60e51b8152602060048201526016602482015275082e4e4c2f2e640d8cadccee8d040dad2e6dac2e8c6d60531b60448201526064015b60405180910390fd5b60008251116103535760405162461bcd60e51b815260206004820152600c60248201526b456d7074792061727261797360a01b604482015260640161030a565b6064825111156103a55760405162461bcd60e51b815260206004820152601860248201527f4d61782031303020636c61696d73207065722062617463680000000000000000604482015260640161030a565b60005b82518110156103f5576103ed8382815181106103c6576103c6611375565b60200260200101518383815181106103e0576103e0611375565b6020026020010151610b93565b6001016103a8565b506103ff60018055565b5050565b61040b610b69565b6001600160a01b0381166104615760405162461bcd60e51b815260206004820152601860248201527f496e76616c696420637573746f6d657220616464726573730000000000000000604482015260640161030a565b600082604051602001610474919061138b565b60408051601f1981840301815291815281516020928301206000818152600390935291206001810154919250906001600160a01b03166104eb5760405162461bcd60e51b8152602060048201526012602482015271496e76616c696420636c61696d20636f646560701b604482015260640161030a565b6001810154600160a01b900460ff161561053c5760405162461bcd60e51b815260206004820152601260248201527110db185a5b48185b1c9958591e481d5cd95960721b604482015260640161030a565b600181015460025482546040516331a9108f60e11b815260048101919091526001600160a01b039283169290911690636352211e90602401602060405180830381865afa158015610591573d6000803e3d6000fd5b505050506040513d601f19601f820116820180604052508101906105b591906113ba565b6001600160a01b03161461060b5760405162461bcd60e51b815260206004820152601b60248201527f52657461696c6572206e6f206c6f6e676572206f776e73204e46540000000000604482015260640161030a565b600254815460405163020604bf60e21b815260048101919091526000916001600160a01b03169063081812fc90602401602060405180830381865afa158015610658573d6000803e3d6000fd5b505050506040513d601f19601f8201168201806040525081019061067c91906113ba565b90506001600160a01b0381163014806107085750600254600183015460405163e985e9c560e01b81526001600160a01b03918216600482015230602482015291169063e985e9c590604401602060405180830381865afa1580156106e4573d6000803e3d6000fd5b505050506040513d601f19601f8201168201806040525081019061070891906113d7565b6107545760405162461bcd60e51b815260206004820152601b60248201527f436f6e7472616374206e6f206c6f6e67657220617070726f7665640000000000604482015260640161030a565b60018201805460ff60a01b1916600160a01b178155600280840180546001600160a01b038881166001600160a01b03199092168217909255426003870155855460009081526004602081905260408083209290925593549454875491516323b872dd60e01b8152908416948101949094526024840191909152604483015291909116906323b872dd90606401600060405180830381600087803b1580156107fa57600080fd5b505af115801561080e573d6000803e3d6000fd5b5050835460018501546040516001600160a01b039182168152908816935090915085907f2445d773c66ed16c943ba99dbaf1e078ab6df9dcc6ea87a9aa67dbbaf4b33a789060200160405180910390a45050506103ff60018055565b610872610b69565b600081604051602001610885919061138b565b60408051601f1981840301815291815281516020928301206000818152600390935291206001810154919250906001600160a01b031633146109095760405162461bcd60e51b815260206004820152601860248201527f4f6e6c792072657461696c65722063616e2063616e63656c0000000000000000604482015260640161030a565b6001810154600160a01b900460ff161561095a5760405162461bcd60e51b815260206004820152601260248201527110db185a5b48185b1c9958591e481d5cd95960721b604482015260640161030a565b805460008181526004602090815260408083208390558583526003918290528083208381556001810180546001600160a81b03191690556002810180546001600160a01b0319169055909101829055513391839186917f60b95ca8429fa51ad63157b7e4a33c4441432d3e1e2d056b352533ed87fa284691a45050506109df60018055565b50565b6040805160a081018252600080825260208201819052918101829052606081018290526080810191909152600082604051602001610a20919061138b565b60408051808303601f190181528282528051602091820120600090815260038083529083902060a0850184528054855260018101546001600160a01b0380821694870194909452600160a01b900460ff1615159385019390935260028301549091166060840152015460808201529392505050565b600080600080600085604051602001610aae919061138b565b60408051808303601f190181529181528151602092830120600090815260039092529020600181015490546001600160a01b038216801515999198509650600160a01b90910460ff16945092505050565b610b07610fb4565b610b116000610fe1565b565b610b1b610b69565b610b258282610b93565b6103ff60018055565b610b36610fb4565b6001600160a01b038116610b6057604051631e4fbdf760e01b81526000600482015260240161030a565b6109df81610fe1565b600260015403610b8c57604051633ee5aeb560e01b815260040160405180910390fd5b6002600155565b6000825111610be45760405162461bcd60e51b815260206004820152601a60248201527f436c61696d20636f64652063616e6e6f7420626520656d707479000000000000604482015260640161030a565b6002546040516331a9108f60e11b81526004810183905233916001600160a01b031690636352211e90602401602060405180830381865afa158015610c2d573d6000803e3d6000fd5b505050506040513d601f19601f82011682018060405250810190610c5191906113ba565b6001600160a01b031614610ca05760405162461bcd60e51b8152602060048201526016602482015275165bdd48191bdb89dd081bdddb881d1a1a5cc813919560521b604482015260640161030a565b60025460405163020604bf60e21b8152600481018390526000916001600160a01b03169063081812fc90602401602060405180830381865afa158015610cea573d6000803e3d6000fd5b505050506040513d601f19601f82011682018060405250810190610d0e91906113ba565b90506001600160a01b038116301480610d94575060025460405163e985e9c560e01b81523360048201523060248201526001600160a01b039091169063e985e9c590604401602060405180830381865afa158015610d70573d6000803e3d6000fd5b505050506040513d601f19601f82011682018060405250810190610d9491906113d7565b610deb5760405162461bcd60e51b815260206004820152602260248201527f436f6e7472616374206e6f7420617070726f76656420666f722074686973204e604482015261119560f21b606482015260840161030a565b600083604051602001610dfe919061138b565b60408051601f198184030181529181528151602092830120600081815260039093529120600101549091506001600160a01b031615610e7f5760405162461bcd60e51b815260206004820152601960248201527f436c61696d20636f646520616c72656164792065786973747300000000000000604482015260640161030a565b60008381526004602052604090205415610ee55760405162461bcd60e51b815260206004820152602160248201527f546f6b656e20616c72656164792068617320616e2061637469766520636c61696044820152606d60f81b606482015260840161030a565b6040805160a08101825284815233602080830182815260008486018181526060860182815260808701838152898452600380875289852098518955945160018901805494511515600160a01b026001600160a81b03199095166001600160a01b0392831617949094179093559051600288018054919093166001600160a01b03199190911617909155519490910193909355868352600490528282208490559151859184917f197763950dc3d29dd58ddd2193f9fe16477587b73cbd1fa99458c760f162f9dd9190a450505050565b6000546001600160a01b03163314610b115760405163118cdaa760e01b815233600482015260240161030a565b600080546001600160a01b038381166001600160a01b0319831681178455604051919092169283917f8be0079c531659141344cd1fd0a4f28419497f9722a3daafe3b4186f6b6457e09190a35050565b60006020828403121561104357600080fd5b5035919050565b634e487b7160e01b600052604160045260246000fd5b604051601f8201601f1916810167ffffffffffffffff811182821017156110895761108961104a565b604052919050565b600067ffffffffffffffff8211156110ab576110ab61104a565b5060051b60200190565b600082601f8301126110c657600080fd5b813567ffffffffffffffff8111156110e0576110e061104a565b6110f3601f8201601f1916602001611060565b81815284602083860101111561110857600080fd5b816020850160208301376000918101602001919091529392505050565b600082601f83011261113657600080fd5b8135602061114b61114683611091565b611060565b8083825260208201915060208460051b87010193508684111561116d57600080fd5b602086015b848110156111895780358352918301918301611172565b509695505050505050565b600080604083850312156111a757600080fd5b823567ffffffffffffffff808211156111bf57600080fd5b818501915085601f8301126111d357600080fd5b813560206111e361114683611091565b82815260059290921b8401810191818101908984111561120257600080fd5b8286015b8481101561123a5780358681111561121e5760008081fd5b61122c8c86838b01016110b5565b845250918301918301611206565b509650508601359250508082111561125157600080fd5b5061125e85828601611125565b9150509250929050565b6001600160a01b03811681146109df57600080fd5b6000806040838503121561129057600080fd5b823567ffffffffffffffff8111156112a757600080fd5b6112b3858286016110b5565b92505060208301356112c481611268565b809150509250929050565b6000602082840312156112e157600080fd5b813567ffffffffffffffff8111156112f857600080fd5b611304848285016110b5565b949350505050565b6000806040838503121561131f57600080fd5b823567ffffffffffffffff81111561133657600080fd5b611342858286016110b5565b95602094909401359450505050565b60006020828403121561136357600080fd5b813561136e81611268565b9392505050565b634e487b7160e01b600052603260045260246000fd5b6000825160005b818110156113ac5760208186018101518583015201611392565b506000920191825250919050565b6000602082840312156113cc57600080fd5b815161136e81611268565b6000602082840312156113e957600080fd5b8151801515811461136e57600080fdfea26469706673582212201194fb7c763c47147c7c4926098ac1e7a66f810d8982c7a6b97a45801f30387164736f6c63430008180033",
  "linkReferences": {},
  "deployedLinkReferences": {}
}