{
  "_format": "hh-sol-artifact-1",
  "contractName": "EditableNFT",
  "sourceName": "contracts/EditableNFT.sol",
  "abi": [
    {
      "inputs": [],
      "stateMutability": "nonpayable",
      "type": "constructor"
    },
    {
      "inputs": [
        {
          "internalType": "address",
          "name": "sender",
          "type": "address"
        },
        {
          "internalType": "uint256",
          "name": "tokenId",
          "type": "uint256"
        },
        {
          "internalType": "address",
          "name": "owner",
          "type": "address"
        }
      ],
      "name": "ERC721IncorrectOwner",
      "type": "error"
    },
    {
      "inputs": [
        {
          "internalType": "address",
          "name": "operator",
          "type": "address"
        },
        {
          "internalType": "uint256",
          "name": "tokenId",
          "type": "uint256"
        }
      ],
      "name": "ERC721InsufficientApproval",
      "type": "error"
    },
    {
      "inputs": [
        {
          "internalType": "address",
          "name": "approver",
          "type": "address"
        }
      ],
      "name": "ERC721InvalidApprover",
      "type": "error"
    },
    {
      "inputs": [
        {
          "internalType": "address",
          "name": "operator",
          "type": "address"
        }
      ],
      "name": "ERC721InvalidOperator",
      "type": "error"
    },
    {
      "inputs": [
        {
          "internalType": "address",
          "name": "owner",
          "type": "address"
        }
      ],
      "name": "ERC721InvalidOwner",
      "type": "error"
    },
    {
      "inputs": [
        {
          "internalType": "address",
          "name": "receiver",
          "type": "address"
        }
      ],
      "name": "ERC721InvalidReceiver",
      "type": "error"
    },
    {
      "inputs": [
        {
          "internalType": "address",
          "name": "sender",
          "type": "address"
        }
      ],
      "name": "ERC721InvalidSender",
      "type": "error"
    },
    {
      "inputs": [
        {
          "internalType": "uint256",
          "name": "tokenId",
          "type": "uint256"
        }
      ],
      "name": "ERC721NonexistentToken",
      "type": "error"
    },
    {
      "anonymous": false,
      "inputs": [
        {
          "indexed": true,
          "internalType": "address",
          "name": "owner",
          "type": "address"
        },
        {
          "indexed": true,
          "internalType": "address",
          "name": "approved",
          "type": "address"
        },
        {
          "indexed": true,
          "internalType": "uint256",
          "name": "tokenId",
          "type": "uint256"
        }
      ],
      "name": "Approval",
      "type": "event"
    },
    {
      "anonymous": false,
      "inputs": [
        {
          "indexed": true,
          "internalType": "address",
          "name": "owner",
          "type": "address"
        },
        {
          "indexed": true,
          "internalType": "address",
          "name": "operator",
          "type": "address"
        },
        {
          "indexed": false,
          "internalType": "bool",
          "name": "approved",
          "type": "bool"
        }
      ],
      "name": "ApprovalForAll",
      "type": "event"
    },
    {
      "anonymous": false,
      "inputs": [
        {
          "indexed": false,
          "internalType": "uint256",
          "name": "_fromTokenId",
          "type": "uint256"
        },
        {
          "indexed": false,
          "internalType": "uint256",
          "name": "_toTokenId",
          "type": "uint256"
        }
      ],
      "name": "BatchMetadataUpdate",
      "type": "event"
    },
    {
      "anonymous": false,
      "inputs": [
        {
          "indexed": false,
          "internalType": "uint256",
          "name": "_tokenId",
          "type": "uint256"
        }
      ],
      "name": "MetadataUpdate",
      "type": "event"
    },
    {
      "anonymous": false,
      "inputs": [
        {
          "indexed": true,
          "internalType": "uint256",
          "name": "tokenId",
          "type": "uint256"
        },
        {
          "indexed": true,
          "internalType": "address",
          "name": "attester",
          "type": "address"
        },
        {
          "indexed": false,
          "internalType": "uint256",
          "name": "value",
          "type": "uint256"
        },
        {
          "indexed": false,
          "internalType": "string",
          "name": "note",
          "type": "string"
        },
        {
          "indexed": false,
          "internalType": "uint256",
          "name": "timestamp",
          "type": "uint256"
        }
      ],
      "name": "TokenAttested",
      "type": "event"
    },
    {
      "anonymous": false,
      "inputs": [
        {
          "indexed": true,
          "internalType": "uint256",
          "name": "tokenId",
          "type": "uint256"
        },
        {
          "indexed": true,
          "internalType": "address",
          "name": "to",
          "type": "address"
        },
        {
          "indexed": false,
          "internalType": "string",
          "name": "metadataUri",
          "type": "string"
        }
      ],
      "name": "TokenMinted",
      "type": "event"
    },
    {
      "anonymous": false,
      "inputs": [
        {
          "indexed": true,
          "internalType": "address",
          "name": "from",
          "type": "address"
        },
        {
          "indexed": true,
          "internalType": "address",
          "name": "to",
          "type": "address"
        },
        {
          "indexed": true,
          "internalType": "uint256",
          "name": "tokenId",
          "type": "uint256"
        }
      ],
      "name": "Transfer",
      "type": "event"
    },
    {
      "inputs": [
        {
          "internalType": "address",
          "name": "to",
          "type": "address"
        },
        {
          "internalType": "uint256",
          "name": "tokenId",
          "type": "uint256"
        }
      ],
      "name": "approve",
      "outputs": [],
      "stateMutability": "nonpayable",
      "type": "function"
    },
    {
      "inputs": [
        {
          "internalType": "uint256",
          "name": "tokenId",
          "type": "uint256"
        },
        {
          "internalType": "uint256",
          "name": "value",
          "type": "uint256"
        },
        {
          "internalType": "string",
          "name": "note",
          "type": "string"
        }
      ],
      "name": "attestNFT",
      "outputs": [],
      "stateMutability": "nonpayable",
      "type": "function"
    },
    {
      "inputs": [
        {
          "internalType": "address",
          "name": "owner",
          "type": "address"
        }
      ],
      "name": "balanceOf",
      "outputs": [
        {
          "internalType": "uint256",
          "name": "",
          "type": "uint256"
        }
      ],
      "stateMutability": "view",
      "type": "function"
    },
    {
      "inputs": [
        {
          "internalType": "uint256",
          "name": "tokenId",
          "type": "uint256"
        }
      ],
      "name": "exists",
      "outputs": [
        {
          "internalType": "bool",
          "name": "",
          "type": "bool"
        }
      ],
      "stateMutability": "view",
      "type": "function"
    },
    {
      "inputs": [
        {
          "internalType": "uint256",
          "name": "tokenId",
          "type": "uint256"
        }
      ],
      "name": "getApproved",
      "outputs": [
        {
          "internalType": "address",
          "name": "",
          "type": "address"
        }
      ],
      "stateMutability": "view",
      "type": "function"
    },
    {
      "inputs": [
        {
          "internalType": "uint256",
          "name": "tokenId",
          "type": "uint256"
        }
      ],
      "name": "getAttestationCount",
      "outputs": [
        {
          "internalType": "uint256",
          "name": "",
          "type": "uint256"
        }
      ],
      "stateMutability": "view",
      "type": "function"
    },
    {
      "inputs": [
        {
          "internalType": "uint256",
          "name": "tokenId",
          "type": "uint256"
        }
      ],
      "name": "getAttestations",
      "outputs": [
        {
          "components": [
            {
              "internalType": "address",
              "name": "attester",
              "type": "address"
            },
            {
              "internalType": "uint256",
              "name": "value",
              "type": "uint256"
            },
            {
              "internalType": "string",
              "name": "note",
              "type": "string"
            },
            {
              "internalType": "uint256",
              "name": "timestamp",
              "type": "uint256"
            }
          ],
          "internalType": "struct EditableNFT.Attestation[]",
          "name": "",
          "type": "tuple[]"
        }
      ],
      "stateMutability": "view",
      "type": "function"
    },
    {
      "inputs": [
        {
          "internalType": "address",
          "name": "owner",
          "type": "address"
        },
        {
          "internalType": "address",
          "name": "operator",
          "type": "address"
        }
      ],
      "name": "isApprovedForAll",
      "outputs": [
        {
          "internalType": "bool",
          "name": "",
          "type": "bool"
        }
      ],
      "stateMutability": "view",
      "type": "function"
    },
    {
      "inputs": [
        {
          "internalType": "string",
          "name": "metadataUri",
          "type": "string"
        }
      ],
      "name": "mint",
      "outputs": [
        {
          "internalType": "uint256",
          "name": "",
          "type": "uint256"
        }
      ],
      "stateMutability": "nonpayable",
      "type": "function"
    },
    {
      "inputs": [
        {
          "internalType": "string",
          "name": "metadataUri",
          "type": "string"
        },
        {
          "internalType": "uint256",
          "name": "quantity",
          "type": "uint256"
        }
      ],
      "name": "mintBatch",
      "outputs": [
        {
          "internalType": "uint256",
          "name": "",
          "type": "uint256"
        }
      ],
      "stateMutability": "nonpayable",
      "type": "function"
    },
    {
      "inputs": [],
      "name": "name",
      "outputs": [
        {
          "internalType": "string",
          "name": "",
          "type": "string"
        }
      ],
      "stateMutability": "view",
      "type": "function"
    },
    {
      "inputs": [
        {
          "internalType": "uint256",
          "name": "tokenId",
          "type": "uint256"
        }
      ],
      "name": "ownerOf",
      "outputs": [
        {
          "internalType": "address",
          "name": "",
          "type": "address"
        }
      ],
      "stateMutability": "view",
      "type": "function"
    },
    {
      "inputs": [
        {
          "internalType": "address",
          "name": "from",
          "type": "address"
        },
        {
          "internalType": "address",
          "name": "to",
          "type": "address"
        },
        {
          "internalType": "uint256",
          "name": "tokenId",
          "type": "uint256"
        }
      ],
      "name": "safeTransferFrom",
      "outputs": [],
      "stateMutability": "nonpayable",
      "type": "function"
    },
    {
      "inputs": [
        {
          "internalType": "address",
          "name": "from",
          "type": "address"
        },
        {
          "internalType": "address",
          "name": "to",
          "type": "address"
        },
        {
          "internalType": "uint256",
          "name": "tokenId",
          "type": "uint256"
        },
        {
          "internalType": "bytes",
          "name": "data",
          "type": "bytes"
        }
      ],
      "name": "safeTransferFrom",
      "outputs": [],
      "stateMutability": "nonpayable",
      "type": "function"
    },
    {
      "inputs": [
        {
          "internalType": "address",
          "name": "operator",
          "type": "address"
        },
        {
          "internalType": "bool",
          "name": "approved",
          "type": "bool"
        }
      ],
      "name": "setApprovalForAll",
      "outputs": [],
      "stateMutability": "nonpayable",
      "type": "function"
    },
    {
      "inputs": [
        {
          "internalType": "bytes4",
          "name": "interfaceId",
          "type": "bytes4"
        }
      ],
      "name": "supportsInterface",
      "outputs": [
        {
          "internalType": "bool",
          "name": "",
          "type": "bool"
        }
      ],
      "stateMutability": "view",
      "type": "function"
    },
    {
      "inputs": [],
      "name": "symbol",
      "outputs": [
        {
          "internalType": "string",
          "name": "",
          "type": "string"
        }
      ],
      "stateMutability": "view",
      "type": "function"
    },
    {
      "inputs": [
        {
          "internalType": "uint256",
          "name": "tokenId",
          "type": "uint256"
        }
      ],
      "name": "tokenURI",
      "outputs": [
        {
          "internalType": "string",
          "name": "",
          "type": "string"
        }
      ],
      "stateMutability": "view",
      "type": "function"
    },
    {
      "inputs": [],
      "name": "totalSupply",
      "outputs": [
        {
          "internalType": "uint256",
          "name": "",
          "type": "uint256"
        }
      ],
      "stateMutability": "view",
      "type": "function"
    },
    {
      "inputs": [
        {
          "internalType": "address",
          "name": "from",
          "type": "address"
        },
        {
          "internalType": "address",
          "name": "to",
          "type": "address"
        },
        {
          "internalType": "uint256",
          "name": "tokenId",
          "type": "uint256"
        }
      ],
      "name": "transferFrom",
      "outputs": [],
      "stateMutability": "nonpayable",
      "type": "function"
    }
  ],
  "bytecode": "0x60806040523480156200001157600080fd5b506040518060400160405280600b81526020016a11591a5d18589b1953919560aa1b815250604051806040016040528060048152602001631153919560e21b815250816000908162000064919062000123565b50600162000073828262000123565b505050620001ef565b634e487b7160e01b600052604160045260246000fd5b600181811c90821680620000a757607f821691505b602082108103620000c857634e487b7160e01b600052602260045260246000fd5b50919050565b601f8211156200011e576000816000526020600020601f850160051c81016020861015620000f95750805b601f850160051c820191505b818110156200011a5782815560010162000105565b5050505b505050565b81516001600160401b038111156200013f576200013f6200007c565b620001578162000150845462000092565b84620000ce565b602080601f8311600181146200018f5760008415620001765750858301515b600019600386901b1c1916600185901b1785556200011a565b600085815260208120601f198616915b82811015620001c0578886015182559484019460019091019084016200019f565b5085821015620001df5787850151600019600388901b60f8161c191681555b5050505050600190811b01905550565b6118b080620001ff6000396000f3fe608060405234801561001057600080fd5b506004361061012c5760003560e01c80636352211e116100ad578063b88d4fde11610071578063b88d4fde14610298578063c87b56dd146102ab578063d85d3d27146102be578063e985e9c5146102d1578063ff1f94b5146102e457600080fd5b80636352211e1461024457806370a082311461025757806395d89b411461026a578063a22cb46514610272578063ac37cf531461028557600080fd5b806323b872dd116100f457806323b872dd146101c05780633ee4d3d2146101d357806342842e0e146101f35780634347fb82146102065780634f558e791461021957600080fd5b806301ffc9a71461013157806306fdde0314610159578063081812fc1461016e578063095ea7b31461019957806318160ddd146101ae575b600080fd5b61014461013f366004611214565b610304565b60405190151581526020015b60405180910390f35b610161610315565b6040516101509190611281565b61018161017c366004611294565b6103a7565b6040516001600160a01b039091168152602001610150565b6101ac6101a73660046112c9565b6103d0565b005b6007545b604051908152602001610150565b6101ac6101ce3660046112f3565b6103df565b6101e66101e1366004611294565b61046f565b604051610150919061132f565b6101ac6102013660046112f3565b61059d565b6101ac610214366004611474565b6105bd565b610144610227366004611294565b6000908152600260205260409020546001600160a01b0316151590565b610181610252366004611294565b6106f6565b6101b26102653660046114c4565b610701565b610161610749565b6101ac6102803660046114df565b610758565b6101b261029336600461151b565b610763565b6101ac6102a6366004611560565b610844565b6101616102b9366004611294565b61085c565b6101b26102cc3660046115dc565b610867565b6101446102df366004611611565b6108dc565b6101b26102f2366004611294565b60009081526008602052604090205490565b600061030f8261090a565b92915050565b60606000805461032490611644565b80601f016020809104026020016040519081016040528092919081815260200182805461035090611644565b801561039d5780601f106103725761010080835404028352916020019161039d565b820191906000526020600020905b81548152906001019060200180831161038057829003601f168201915b5050505050905090565b60006103b28261092f565b506000828152600460205260409020546001600160a01b031661030f565b6103db828233610968565b5050565b6001600160a01b03821661040e57604051633250574960e11b8152600060048201526024015b60405180910390fd5b600061041b838333610975565b9050836001600160a01b0316816001600160a01b031614610469576040516364283d7b60e01b81526001600160a01b0380861660048301526024820184905282166044820152606401610405565b50505050565b606060086000838152602001908152602001600020805480602002602001604051908101604052809291908181526020016000905b82821015610592576000848152602090819020604080516080810182526004860290920180546001600160a01b03168352600181015493830193909352600283018054929392918401916104f790611644565b80601f016020809104026020016040519081016040528092919081815260200182805461052390611644565b80156105705780601f1061054557610100808354040283529160200191610570565b820191906000526020600020905b81548152906001019060200180831161055357829003601f168201915b50505050508152602001600382015481525050815260200190600101906104a4565b505050509050919050565b6105b883838360405180602001604052806000815250610844565b505050565b336105c7846106f6565b6001600160a01b03161461061d5760405162461bcd60e51b815260206004820152601960248201527f4f6e6c7920746865206f776e65722063616e20617474657374000000000000006044820152606401610405565b60408051608081018252338152602080820185815282840185815242606085015260008881526008845294852080546001808201835591875293909520845160049094020180546001600160a01b0319166001600160a01b03909416939093178355905193820193909355915190918291600282019061069d90826116c6565b50606082015181600301555050336001600160a01b0316847fdd4b45a1295c3db58d7a9f888982be050bab4d9991de5e5f59ee6f4cd52b51708585426040516106e893929190611786565b60405180910390a350505050565b600061030f8261092f565b60006001600160a01b03821661072d576040516322718ad960e21b815260006004820152602401610405565b506001600160a01b031660009081526003602052604090205490565b60606001805461032490611644565b6103db338383610a6e565b60008082118015610775575060648211155b6107b35760405162461bcd60e51b815260206004820152600f60248201526e05175616e746974793a20312d31303608c1b6044820152606401610405565b600060075460016107c491906117c5565b60075490915060005b84811015610839578160010191506107e53383610b0d565b6107ef8287610b72565b336001600160a01b0316827fec2cd236ed6d37bf5a71276ac93889db12834493a090efd543a3d2eca8dcdcc8886040516108299190611281565b60405180910390a36001016107cd565b506007559392505050565b61084f8484846103df565b6104693385858585610bc2565b606061030f82610ced565b6007805460009182610878836117d8565b909155505060075461088a3382610b0d565b6108948184610b72565b336001600160a01b0316817fec2cd236ed6d37bf5a71276ac93889db12834493a090efd543a3d2eca8dcdcc8856040516108ce9190611281565b60405180910390a392915050565b6001600160a01b03918216600090815260056020908152604080832093909416825291909152205460ff1690565b60006001600160e01b03198216632483248360e11b148061030f575061030f82610dfe565b6000818152600260205260408120546001600160a01b03168061030f57604051637e27328960e01b815260048101849052602401610405565b6105b88383836001610e4e565b6000828152600260205260408120546001600160a01b03908116908316156109a2576109a2818486610f54565b6001600160a01b038116156109e0576109bf600085600080610e4e565b6001600160a01b038116600090815260036020526040902080546000190190555b6001600160a01b03851615610a0f576001600160a01b0385166000908152600360205260409020805460010190555b60008481526002602052604080822080546001600160a01b0319166001600160a01b0389811691821790925591518793918516917fddf252ad1be2c89b69c2b068fc378daa952ba7f163c4a11628f55a4df523b3ef91a4949350505050565b6001600160a01b038216610aa057604051630b61174360e31b81526001600160a01b0383166004820152602401610405565b6001600160a01b03838116600081815260056020908152604080832094871680845294825291829020805460ff191686151590811790915591519182527f17307eab39ab6107e8899845ad3d59bd9653f200f220920489ca2b5937696c31910160405180910390a3505050565b6001600160a01b038216610b3757604051633250574960e11b815260006004820152602401610405565b6000610b4583836000610975565b90506001600160a01b038116156105b8576040516339e3563760e11b815260006004820152602401610405565b6000828152600660205260409020610b8a82826116c6565b506040518281527ff8e1a15aba9398e019f0b49df1a4fde98ee17ae345cb5f6b5e2c27f5033e8ce79060200160405180910390a15050565b6001600160a01b0383163b15610ce657604051630a85bd0160e11b81526001600160a01b0384169063150b7a0290610c049088908890879087906004016117f1565b6020604051808303816000875af1925050508015610c3f575060408051601f3d908101601f19168201909252610c3c9181019061182e565b60015b610ca8573d808015610c6d576040519150601f19603f3d011682016040523d82523d6000602084013e610c72565b606091505b508051600003610ca057604051633250574960e11b81526001600160a01b0385166004820152602401610405565b805160208201fd5b6001600160e01b03198116630a85bd0160e11b14610ce457604051633250574960e11b81526001600160a01b0385166004820152602401610405565b505b5050505050565b6060610cf88261092f565b5060008281526006602052604081208054610d1290611644565b80601f0160208091040260200160405190810160405280929190818152602001828054610d3e90611644565b8015610d8b5780601f10610d6057610100808354040283529160200191610d8b565b820191906000526020600020905b815481529060010190602001808311610d6e57829003601f168201915b505050505090506000610da960408051602081019091526000815290565b90508051600003610dbb575092915050565b815115610ded578082604051602001610dd592919061184b565b60405160208183030381529060405292505050919050565b610df684610fb8565b949350505050565b60006001600160e01b031982166380ac58cd60e01b1480610e2f57506001600160e01b03198216635b5e139f60e01b145b8061030f57506301ffc9a760e01b6001600160e01b031983161461030f565b8080610e6257506001600160a01b03821615155b15610f24576000610e728461092f565b90506001600160a01b03831615801590610e9e5750826001600160a01b0316816001600160a01b031614155b8015610eb15750610eaf81846108dc565b155b15610eda5760405163a9fbf51f60e01b81526001600160a01b0384166004820152602401610405565b8115610f225783856001600160a01b0316826001600160a01b03167f8c5be1e5ebec7d5bd14f71427d1e84f3dd0314c0f7b2291e5b200ac8c7c3b92560405160405180910390a45b505b5050600090815260046020526040902080546001600160a01b0319166001600160a01b0392909216919091179055565b610f5f83838361102d565b6105b8576001600160a01b038316610f8d57604051637e27328960e01b815260048101829052602401610405565b60405163177e802f60e01b81526001600160a01b038316600482015260248101829052604401610405565b6060610fc38261092f565b506000610fdb60408051602081019091526000815290565b90506000815111610ffb5760405180602001604052806000815250611026565b8061100584611090565b60405160200161101692919061184b565b6040516020818303038152906040525b9392505050565b60006001600160a01b03831615801590610df65750826001600160a01b0316846001600160a01b03161480611067575061106784846108dc565b80610df65750506000908152600460205260409020546001600160a01b03908116911614919050565b6060600061109d83611123565b600101905060008167ffffffffffffffff8111156110bd576110bd6113c8565b6040519080825280601f01601f1916602001820160405280156110e7576020820181803683370190505b5090508181016020015b600019016f181899199a1a9b1b9c1cb0b131b232b360811b600a86061a8153600a85049450846110f157509392505050565b60008072184f03e93ff9f4daa797ed6e38ed64bf6a1f0160401b83106111625772184f03e93ff9f4daa797ed6e38ed64bf6a1f0160401b830492506040015b6d04ee2d6d415b85acef8100000000831061118e576d04ee2d6d415b85acef8100000000830492506020015b662386f26fc1000083106111ac57662386f26fc10000830492506010015b6305f5e10083106111c4576305f5e100830492506008015b61271083106111d857612710830492506004015b606483106111ea576064830492506002015b600a831061030f5760010192915050565b6001600160e01b03198116811461121157600080fd5b50565b60006020828403121561122657600080fd5b8135611026816111fb565b60005b8381101561124c578181015183820152602001611234565b50506000910152565b6000815180845261126d816020860160208601611231565b601f01601f19169290920160200192915050565b6020815260006110266020830184611255565b6000602082840312156112a657600080fd5b5035919050565b80356001600160a01b03811681146112c457600080fd5b919050565b600080604083850312156112dc57600080fd5b6112e5836112ad565b946020939093013593505050565b60008060006060848603121561130857600080fd5b611311846112ad565b925061131f602085016112ad565b9150604084013590509250925092565b600060208083018184528085518083526040925060408601915060408160051b87010184880160005b838110156113ba57888303603f19018552815180516001600160a01b0316845287810151888501528681015160808886018190529061139982870182611255565b60609384015196909301959095525094870194925090860190600101611358565b509098975050505050505050565b634e487b7160e01b600052604160045260246000fd5b600067ffffffffffffffff808411156113f9576113f96113c8565b604051601f8501601f19908116603f01168101908282118183101715611421576114216113c8565b8160405280935085815286868601111561143a57600080fd5b858560208301376000602087830101525050509392505050565b600082601f83011261146557600080fd5b611026838335602085016113de565b60008060006060848603121561148957600080fd5b8335925060208401359150604084013567ffffffffffffffff8111156114ae57600080fd5b6114ba86828701611454565b9150509250925092565b6000602082840312156114d657600080fd5b611026826112ad565b600080604083850312156114f257600080fd5b6114fb836112ad565b91506020830135801515811461151057600080fd5b809150509250929050565b6000806040838503121561152e57600080fd5b823567ffffffffffffffff81111561154557600080fd5b61155185828601611454565b95602094909401359450505050565b6000806000806080858703121561157657600080fd5b61157f856112ad565b935061158d602086016112ad565b925060408501359150606085013567ffffffffffffffff8111156115b057600080fd5b8501601f810187136115c157600080fd5b6115d0878235602084016113de565b91505092959194509250565b6000602082840312156115ee57600080fd5b813567ffffffffffffffff81111561160557600080fd5b610df684828501611454565b6000806040838503121561162457600080fd5b61162d836112ad565b915061163b602084016112ad565b90509250929050565b600181811c9082168061165857607f821691505b60208210810361167857634e487b7160e01b600052602260045260246000fd5b50919050565b601f8211156105b8576000816000526020600020601f850160051c810160208610156116a75750805b601f850160051c820191505b81811015610ce4578281556001016116b3565b815167ffffffffffffffff8111156116e0576116e06113c8565b6116f4816116ee8454611644565b8461167e565b602080601f83116001811461172957600084156117115750858301515b600019600386901b1c1916600185901b178555610ce4565b600085815260208120601f198616915b8281101561175857888601518255948401946001909101908401611739565b50858210156117765787850151600019600388901b60f8161c191681555b5050505050600190811b01905550565b83815260606020820152600061179f6060830185611255565b9050826040830152949350505050565b634e487b7160e01b600052601160045260246000fd5b8082018082111561030f5761030f6117af565b6000600182016117ea576117ea6117af565b5060010190565b6001600160a01b038581168252841660208201526040810183905260806060820181905260009061182490830184611255565b9695505050505050565b60006020828403121561184057600080fd5b8151611026816111fb565b6000835161185d818460208801611231565b835190830190611871818360208801611231565b0194935050505056fea26469706673582212204775c96bdac8275cb14b5942de9e74e5dfae99bf14aa14126b6b4cfcd8a1a00c64736f6c63430008180033",
  "linkReferences": {},
  "deployedLinkReferences": {}
}